:020000040800F2
:1000000028180020054100087D0700087F07000828
:1000100083070008870700088B070008000000001E
:100020000000000000000000000000008F07000832
:1000300091070008000000009307000895070008DA
:100040001F4100081F4100081F4100081F41000810
:100050001F4100081F4100081F4100081F41000800
:100060001F4100081F4100081F4100081F410008F0
:100070001F4100081F4100081F4100081F410008E0
:100080001F4100081F4100081F4100081F410008D0
:100090001F4100081F4100081F4100081F410008C0
:1000A0001F4100081F4100081F4100081F410008B0
:1000B0001F4100081F4100081F4100081F410008A0
:1000C0001F4100081F4100081F4100081F41000890
:1000D0001F410008794000081F4100081F41000827
:1000E0001F4100081F4100081F4100081F41000870
:1000F0001F4100081F4100081F4100081F41000860
:100100001F4100081F4100081F4100081F4100084F
:100110001F4100081F4100081F4100081F4100083F
:100120001F4100081F4100081F4100081F4100082F
:1001300000F002F800F03FF80AA090E8000C8244BA
:100140008344AAF10107DA4501D100F034F8AFF297
:10015000090EBAE80F0013F0010F18BFFB1A43F0A5
:1001600001031847247F0000447F0000103A24BF99
:1001700078C878C1FAD8520724BF30C830C144BF0C
:1001800004680C607047000000230024002500264E
:10019000103A28BF78C1FBD8520728BF30C148BFEA
:1001A0000B607047782905F01783002070471FB552
:1001B0001FBD10B510BD05F00BFC1146FFF7F7FF92
:1001C00000F0A8F805F029FC03B4FFF7F2FF03BC28
:1001D00003F0F8FE4FF4C87281685143490AFE4AA1
:1001E00011604FF4C872C1685143490AFA4A51601C
:1001F0004FF4C87201695143490AF74A91604FF4BC
:10020000C87241695143490AF34AD1604FF4C87238
:1002100081695143490AF04A11614FF4C872C169BA
:100220005143490AEC4A51614FF4C872016A514383
:10023000490AE94A91614FF4C872416A5143490A37
:10024000E54AD1614FF4C872816A5143490AE24AD2
:1002500011624FF4C872C16A5143490ADE4A5162C1
:100260004FF4C872016B5143490ADB4A91624FF463
:10027000C872816B5143490AD74AD1624FF4C872A0
:10028000016C5143490AD44A11634FF4C872816C1E
:100290005143490AD04A51634FF4C872016D51432A
:1002A000490ACD4A91634FF4C872016E5143490A1D
:1002B000C94AD1634FF4C872816F5143490AC64A93
:1002C00011644FF4C872D0F8A0105143490AC24AD1
:1002D00051644FF4C872D0F8F0105143490ABE4A35
:1002E00091644FF4C872D0F840115143490ABA4A98
:1002F000D1644FF4C872D0F890115143490AB64AFC
:1003000011654FF4C872D0F8E0115143490AB24A5E
:10031000516570478EB04FF000080026002500247C
:10032000A146A24600272C22AC4903A805F080FA7A
:1003300003F0DEFD4FF4165003F052FE01F061FFB2
:1003400003F06EFC00F088FB03F062FD4FF4FC60EC
:10035000A34908800020A3490880A3A018210B46C8
:100360001E22CDE900100021084603F049FB9FA0A2
:1003700018210B462822CDE900100021642003F04B
:100380003FFB0020182104236422CDE90010014620
:10039000242003F0D6FA0020182104234FF416720B
:1003A000CDE900100146962003F0CBFA00BF10E023
:1003B00000201021CDE9001003A931F8142004EB2E
:1003C00004114904080C04234FF4DC7103F0B9FA5A
:1003D000641C162CECDBBFE1002003F042FD8046DC
:1003E000B8F1010F03D0B8F1020F7CD148E0022E22
:1003F00001D1002601E0701CC6B226B1012E12D038
:10040000022E34D121E000207A4908607A49C1F8EF
:100410008801182104236422CDE900100146282018
:1004200003F08FFA2AE00020724908600120724927
:10043000C1F88801002018210423C822CDE900104A
:100440000146282003F07DFA18E001206949086080
:1004500000206949C1F88801182104234FF4C872AB
:10046000CDE900100146282003F06BFA06E00020D9
:10047000604908606049C1F8880100BF00BF90E092
:10048000042D01D1002501E0681CC5B2052D77D2ED
:10049000DFE805F0031831485F00002055490831B6
:1004A00008605549C1F8900152491031086018217F
:1004B00004234FF41672CDE900100146962003F094
:1004C00040FA68E000204B49083108604A49C1F809
:1004D00090010120474910310860002018210423B1
:1004E0004FF4487200E058E0CDE900100146962034
:1004F00003F027FA4FE000203E4908310860012050
:100500003D49C1F8900100203A4910310860182196
:1005100004234FF47A72CDE900100146962003F0CF
:1005200010FA38E0002033490831086001203249D0
:10053000C1F890012F4910310860002018210423D0
:1005400040F2DC52CDE900100146962003F0F9F9A3
:1005500021E0012027490831086000202649C1F820
:1005600090012449103108601821042341F270726F
:10057000CDE900100146962003F0E3F90BE0FFE718
:1005800000201C49083108601B49C1F89001194935
:100590001031086000BF00BF03E00A2003F0E5FC53
:1005A00000BF00BF002700242DE0002003F0FFFB68
:1005B000124941F8240051F8240005F09FFF8346BA
:1005C000394606F0AFF805D20C4951F8240005F081
:1005D00095FF07464B2013E094080020746800083C
:1005E00014000020160000206C6F770068696768AF
:1005F0000000000084012142000021423C00002054
:1006000003F08FFC641CFF2CCFDD5449384605F005
:100610007BFE07465249384606F084F800D8504F12
:10062000384605F033FF83460020182104235A463C
:10063000CDE9001001464FF4B47003F082F94FF495
:1006400080724849484804F097FD002407E0464876
:1006500030F824000004454941F82400641CFF2CB4
:10066000F5DD00F089F94248FFF7B4FD00240BE006
:10067000404850F82400B0F5C87F04D94FF4C87042
:100680003C4941F82400641C162CF1DB3948D0F8B1
:1006900000A0002409E0374850F82400504503D951
:1006A000344850F824A0A146641C162CF3DB00202B
:1006B0001821CDE9001003A830F8192004230021E7
:1006C0004FF4347003F03DF9012435E0294850F827
:1006D0002400294951F82410884217D94FF4FC60AE
:1006E00004EB04135B001E339AB2224B009053F8C4
:1006F0002430C3F5DC7399B204EB04135B000A33B6
:1007000098B24FF4DC7302F0CCFE14E000201949DB
:10071000009051F82410C1F5DC718BB204EB041188
:1007200049001E318AB204EB041149000A3188B233
:10073000282102F0B6FE641C162CC7DB002406E05C
:100740000C4850F824000C4941F82400641C162C75
:10075000F6DB322003F009FC3EE600000000C04159
:100760000000C8423C0000203C040020EC080020AF
:10077000EC0C0020940800203C080020704700BFCB
:10078000FEE700BFFEE700BFFEE700BFFEE77047E1
:1007900070477047704700000CB500200190009032
:1007A0006C48006840F480306A49086000BF6948BE
:1007B000006800F4003000900198401C01900098FF
:1007C00018B90198B0F5A06FF1D16248006800F443
:1007D000003010B10120009001E00020009000984E
:1007E000012843D15C48006840F010005A49086075
:1007F0000846006820F0030008600846006840F0E2
:100800000200086053484068524948600846406802
:1008100048600846406840F4806048600846406888
:1008200020F47C1048600846406840F4E8104860B6
:100830000846006840F08070086000BF45480068C6
:1008400000F000700028F9D04248406820F0030012
:10085000404948600846406840F00200486000BFD8
:100860003C48406800F00C000828F9D10CBD10B5D8
:10087000FFF792FF10BD10B53648006840F0010048
:1008800034490860084640683449084031494860A6
:1008900008460068324908402E490860084600684A
:1008A00020F4802008600846406820F4FE0048607C
:1008B0004FF41F008860FFF7DAFF4FF0006029490E
:1008C000086010BD10B5002100200022214B5B689C
:1008D00003F00C0121B1042906D0082928D107E032
:1008E000214B224C236027E01F4B204C236023E048
:1008F000184B5B6803F47010164B5B6803F480328E
:10090000022303EB904022B9194B4343174C236059
:100910000DE0104B5B6803F4003323B1144B4343E9
:10092000124C236003E0104B4343104C236003E060
:100930000D4B0E4C236000BF00BF064B5B68C3F33A
:1009400003130C4CE15C094B1B68CB40074C236044
:1009500010BD000000100240002002400000FFF81F
:10096000FFFFF6FE08ED00E000127A000000002014
:1009700000093D00040000202DE9F04F89B000245B
:100980005EE0324830F824000FFA80F92F4850F822
:100990002400000C0FFA80FA484605F097FD8046C7
:1009A0004FF0874105F0F2FD07464FF08E4105F00C
:1009B000ABFC0546504605F089FD80464FF0874167
:1009C00005F0E4FD07464FF08E4105F09DFC06461C
:1009D0003146304605F0DAFD29460290284605F0FA
:1009E000D5FD0190029905F021FC039005F0F2FB82
:1009F000CDE9040105F01AF80022154BCDE90601F6
:100A000005F06CF8074605F037F883465CB94FF0FF
:100A10008E41584605F0BAFD074605F037FD0D49F1
:100A200041F824000AE04FF08F41584605F0AEFD32
:100A3000074605F02BFD074941F82400601C84B2ED
:100A4000802C9EDB09B0BDE8F08F0000EC08002090
:100A500000007040EC0C002008B50121242003F0B8
:100A60008DFE4FF48070ADF8000010208DF803006B
:100A700003208DF802006946254803F0C3FB4FF4BC
:100A80008071234803F06BFC0420ADF80000694638
:100A9000204803F0B7FB04211E4803F060FC02204D
:100AA000ADF8000069461A4803F0ACFB0221184873
:100AB00003F057FC0420ADF800006946144803F029
:100AC000A1FB0421124803F04CFC0820ADF8000003
:100AD00069460F4803F096FB08210D4803F041FCDE
:100AE0001020ADF800006946094803F08BFB102187
:100AF000074803F036FC2020ADF8000069460448A2
:100B000003F080FB2021024803F02BFC08BD00000D
:100B100000080140001401404FF48071FE4A516109
:100B200049005161FD4908608021516111618900CE
:100B3000116170474FF48071F74A116149005161AA
:100B4000F649086080215161116189001161704787
:100B500010B504462146F04803F00AFC8021EF4816
:100B60000C3803F0FEFB8021EC480C3803F0F7FB57
:100B700010BD10B54FF08830E8490C390860091DE8
:100B800008600020E54908608815E34908614000D5
:100B9000486140204861E248808848F689118842CF
:100BA00002D1022003F0BDF9DC48001F006884B2C6
:100BB0004020D9490861C00008614FF03330D7495F
:100BC0000C390860091D08604FF6FF70D3490860B2
:100BD000204610BD10B504460B462046FFF79CFF8B
:100BE0004FF48070CC49086140004861CB480360F5
:100BF0008020486108618000086110BD10B504467E
:100C00002046FFF789FFFFF7B4FF10BD00B5C449C8
:100C10000889FFF781FF00BD4FF48071BE4A116162
:100C200049005161BD49086080215161116189000D
:100C30001161704730B5014601F01F04C1F345133F
:100C4000CA0AE50205EB43151544A8B230BD00BF42
:100C5000011EA0F10102D0B2FAD1704730B50446AE
:100C60000D46AF48808849F24131884205D0AC48F2
:100C7000808845F21031884240D1A9494889FFF760
:100C80004BFF4FF48070A449086140004861201276
:100C9000A24908608020A04948610861800008617D
:100CA0004010086140004861E0B29C490860802023
:100CB0009949486108618000086199498889FFF76E
:100CC0002BFF4FF48070944908614000486128125E
:100CD000924908608020904948610861800008615D
:100CE0004010086140004861E8B28C4908608020EB
:100CF000894948610861800008618DE188488088E1
:100D000046F60401884249D185488079012804D1FA
:100D100083480088401E001B84B281494889FFF740
:100D2000FBFE4FF480707C4908614000486120124E
:100D30007A4908608020784948610861800008612C
:100D40004010086140004861E0B2744908608020AA
:100D50007149486108618000086171498889FFF71D
:100D6000DBFE4FF480706C49086140004861281236
:100D70006A4908608020684948610861800008610C
:100D80004010086140004861E8B264490860802072
:100D9000614948610861800008613DE160488088E0
:100DA00041F6631188427DD15D48807900283FD1AA
:100DB0005B480088401E001B84B259494889FFF7F0
:100DC000ABFE4FF480705449086140004861002038
:100DD00052490860802050494861086180000861DC
:100DE000401008614000486100204C4908608020A4
:100DF000494948610861800008614010086140006D
:100E000048612012454908608020434948610861D3
:100E1000800008614010086140004861E0B23F492D
:100E2000086080203C49486108618000086141E019
:100E30003B494889FFF770FE4FF4807036490861DE
:100E400040004861201235490860802032494861DD
:100E50000861800008614010086140004861E0B20C
:100E60002E49086080202C49486108618000086193
:100E7000401008614000486129480088401E001267
:100E80002649086080202449486108618000086183
:100E9000401008614000486121480078401EC0B2FF
:100EA0001E4900E04EE0086080201B49486108614F
:100EB000800008611A498889FFF72EFE4FF4807080
:100EC00015490861400048612812144908608020D3
:100ED00011494861086180000861401008614000C4
:100EE0004861E8B20D49086080200B4948610861FB
:100EF000800008614010086140004861084840884F
:100F0000401E0012054908608020034948610861BD
:100F100080000861401005E0001001400C0C014009
:100F2000EC100020086140004861FB488078401EBA
:100F3000C0B2FA4908608020F94948610861800020
:100F4000086169E0F448808845F21051884250D128
:100F5000F1494889FFF7E0FD4FF48070F0490861DE
:100F6000400048612012ED4908608020EC4948614A
:100F7000086180000861E8494989491C88B2FFF787
:100F8000CBFD4FF48070E649086140004861E0B253
:100F9000E24908608020E2494861086180000861F8
:100FA000DD498889FFF7B8FD4FF48070DC4908619E
:100FB000400048612812D94908608020D84948611A
:100FC000086180000861D4498989491C88B2FFF70B
:100FD000A3FD4FF48070D249086140004861E8B237
:100FE000CE4908608020CE494861086180000861D0
:100FF00012E0C9488079012804D1C7480088401E02
:10100000001B84B2C44948892146FFF7E3FDC24969
:1010100088892946FFF7DEFD30BD2DE9F041054600
:101020000E46BD480088A84203DDBB484088B04258
:1010300002DC0020BDE8F08131462846FFF70EFEB5
:10104000B548808849F24131884211D0B248808841
:1010500046F6040188420BD0AF48808845F2103133
:10106000884205D0AC48808841F66311884203D19C
:101070002E20FFF751FD0DE0A748808845F2105162
:10108000884204D14FF43850FFF746FD02E0222099
:10109000FFF742FD4FF08830A0490C390860091D68
:1010A00008604FF6FF709D49086088159C490861EB
:1010B00040004861402048610220FFF7C8FD974882
:1010C000001F006884B240209549086192488088DA
:1010D00041F66311884210D14FF4007090490861C5
:1010E0004FF033308D490C390860091D08604FF608
:1010F000FF708A49086020469CE740208849486183
:101100000220FFF7A4FD8548001F006884B240203C
:10111000834908618048808849F2413188420BD078
:101120007D48808845F21031884205D07A48808811
:1011300045F21051884213D140207949486102207C
:10114000FFF785FD7548001F00681FFA80F84020F2
:1011500073490861E7B24FF6FF7000EA07270DE018
:101160006D48808846F60401884207D140206C49CA
:10117000486108616948001F006884B24FF400703C
:10118000674908614FF0333064490C390860091D24
:1011900008604FF6FF70614908605F48808849F237
:1011A0002531884216D05C48808844F23551884207
:1011B00010D059488088091F88420BD05648808833
:1011C00048F68911884205D0534880884BF2055172
:1011D000884201D120462DE74F48808849F24131AD
:1011E00088420BD04C48808845F21031884205D0A7
:1011F0004948808845F21051884207D1E012C00268
:10120000B91240EA411040EAE82013E72046FFF710
:1012100011FD0FE700B54048808849F2413188420E
:1012200011D03D48808846F6040188420BD03A48E8
:10123000808845F21031884205D03748808841F6D1
:101240006311884203D12920FFF766FC0FE0324882
:10125000808845F21051884204D14FF42450FFF7A2
:101260005BFC04E040F273110720FFF7B3FC00BD04
:1012700000B52948808849F24131884211D026487A
:10128000808846F6040188420BD02348808845F2C6
:101290001031884205D02048808841F66311884289
:1012A00003D12820FFF738FC0EE01B48808845F268
:1012B0001051884204D14FF42050FFF72DFC03E079
:1012C00000210720FFF786FC00BDF0B5054600248D
:1012D00000271148807901280BD10F48808846F6F5
:1012E0000401884205D00C48808841F66311884289
:1012F00008D10948807920BB0748808841F66311EE
:1013000088421ED1082D1BD2DFE805F0040C0E1018
:1013100012141618062513E0EC1000200C0C0140E6
:101320000010014007250BE0042509E0052507E032
:10133000012505E0002503E0032501E0022500BFAB
:1013400000BFF848808849F24131884217D0F548FB
:10135000808846F60401884211D0F248808845F220
:10136000103188420BD0EF48808845F210518842F6
:1013700005D0EC48808841F6631188427ED1082D63
:101380001CD2DFE805F00406090C0F12151800BF87
:1013900014E044F0800411E044F040040EE044F016
:1013A000C0040BE044F0200408E044F0600405E0D1
:1013B00044F0A00402E044F0E00400BF00BFD948BC
:1013C000808845F21051884202D14FF4585700E00E
:1013D0003627D448808845F2103188420DD0D14854
:1013E000808845F21051884207D0CE48808841F667
:1013F0006311884201D044F00804CA48808846F648
:101400000401884201D144F0020421463846FFF726
:10141000E1FBC448808841F6631188421DD004F086
:10142000200068B1BF480088BE494988884214DA64
:10143000BC4806884088BB490880084646800CE0C6
:10144000B8480088B7494988884206DDB54806880B
:101450004088B449088008464680B248808845F2F2
:10146000105188427ED1AF494889FFF755FB4FF4B0
:101470008070AD4908614000486100E029E100202A
:10148000AA4908608020A849486108618000086175
:10149000A4494989491C88B2FFF73EFB4FF480708C
:1014A000A1490861400048610020A04908608020EF
:1014B0009D4948610861800008619A494989891CF1
:1014C00088B2FFF729FB4FF480709749086140000C
:1014D000486194480088401E0012944908608020AA
:1014E000914948610861800008618E494989C91C99
:1014F00088B2FFF711FB4FF480708B490861400000
:10150000486188480078401EC0B288490860802041
:101510008549486108618000086182498889FFF730
:10152000FBFA4FF480708049086140004861002058
:101530007E49086080207C4948610861800008611C
:1015400078498989491C88B2FFF7E6FA4FF4807020
:101550007549086140004861002074490860802096
:10156000714900E034E048610861800008616D491C
:101570008989891C88B2FFF7CFFA4FF480706A49D5
:1015800008614000486167484088401E0012674972
:1015900008608020644948610861800008616149F1
:1015A0008989C91C88B2FFF7B7FA4FF480705E4989
:1015B0000861400048615B488078401EC0B25B49CA
:1015C0000860802058494861086180000861A7E0F0
:1015D00054494889FFF7A0FA4FF4807052490861D6
:1015E0004000486100205149086080204E49486110
:1015F00008618000086140100861400048610020D7
:101600004A490860802048494861086180000861B3
:10161000401008614000486142480088401E0012A6
:1016200042490860802040494861086180000861A3
:1016300040100861400048613A480078401EC0B23E
:101640003A49086080203849486108618000086193
:1016500034498889FFF760FA4FF480703249086195
:101660004000486100203149086080202E494861CF
:101670000861800008614010086140004861002056
:101680002A49086080202849486108618000086173
:10169000401008614000486122484088401E001206
:1016A0002249086080202049486108618000086163
:1016B00040100861400048611A488078401EC0B25E
:1016C0001A49086080201849486108618000086153
:1016D00026E0082D1CD2DFE805F004070A0D0F12E2
:1016E000151844F0300413E044F0100410E044F006
:1016F00020040DE000BF0BE044F0380408E044F0A3
:10170000280405E044F0180402E044F0080400BF97
:1017100000BF032744F4805421463846FFF75AFAA5
:10172000F0BD0000EC100020001001400C0C014046
:1017300030B504460D4629462046FFF78FFAFFF7DD
:1017400065FA4FF48070FE49086140004861FD4829
:101750000088FD4908608020F949486108618000DF
:10176000086130BD70B504460D461646F7488088BE
:1017700049F24131884205D0F448808845F2103161
:10178000884240D1F1494889FFF7C6F94FF480708B
:10179000EB490861400048612012EB490860802055
:1017A000E749486108618000086140100861400015
:1017B0004861E0B2E44908608020E149486108617D
:1017C00080000861E1498889FFF7A6F94FF480702D
:1017D000DB490861400048612812DB49086080202D
:1017E000D7494861086180000861401008614000E5
:1017F0004861E8B2D44908608020D1494861086155
:10180000800008613DE1D148808845F2105188424E
:1018100050D1CE494889FFF77FF94FF48070C8490D
:101820000861400048612012C74908608020C4490F
:101830004861086180000861C4494989491C88B22F
:10184000FFF76AF94FF48070BD49086140004861B4
:10185000E0B2BD4908608020B94948610861800054
:101860000861BA498889FFF757F94FF48070B44985
:101870000861400048612812B34908608020B049DF
:101880004861086180000861B0498989491C88B2B3
:10189000FFF742F94FF48070A949086140004861A0
:1018A000E8B2A94908608020A54948610861800024
:1018B0000861E6E0A548808841F6631188427DD141
:1018C000A248807920B9A1480088401E001B84B23C
:1018D0009E494889FFF720F94FF4807098490861C4
:1018E000400048612012984908608020944948616E
:1018F0000861800008614010086140004861E0B262
:101900009149086080208E49486108618000086123
:10191000401008614000486120128B490860802017
:1019200087494861086180000861401008614000F3
:101930004861E0B2844908608020814948610861BB
:101940008000086181498889FFF7E6F84FF48070CC
:101950007B4908614000486128127B49086080206B
:1019600077494861086180000861401008614000C3
:101970004861E8B274490860802071494861086193
:1019800080000861401008614000486128126E49DB
:10199000086080206A494861086180000861401041
:1019A000086140004861E8B26749086080206449E6
:1019B000486108618000086163E0FFE76348808850
:1019C00046F60401884249D160488079012804D153
:1019D0005E480088401E001B84B25C494889FFF7BE
:1019E0009BF84FF48070564908614000486120120E
:1019F00055490860802052494861086180000861AB
:101A00004010086140004861E0B24F490860802002
:101A10004B4948610861800008614C498889FFF79B
:101A20007BF84FF4807046490861400048612812F5
:101A3000454908608020424948610861800008618A
:101A40004010086140004861E8B23F4908608020CA
:101A50003B49486108618000086112E03B48807999
:101A6000012804D139480088401E001B84B2374940
:101A700048892146FFF7AEF8344988892946FFF79F
:101A8000A9F84FF480702E494861400048612F4802
:101A900000892D490860802029494861086180003B
:101AA00008614010086140004861274806608020B6
:101AB000486108618000086170BD2DE9F04104466D
:101AC000BE20FFF729F84FF480701D4908614000DF
:101AD000486105201C490860802019494861086157
:101AE000800008614010086140004861204604F011
:101AF0007AF905464FF06632154B04F087F9074630
:101B000004F044F91049086080200D4948610861DB
:101B100080000861401008614000486101200A49C6
:101B20000860802006494861086180000861401013
:101B3000086140004861FF2003490860802009E0F7
:101B400000100140140000200C0C0140EC1000209B
:101B500066660440FE4948610861800008614010E3
:101B60000861400048610020FA4908608020F84977
:101B700048610861800008614010086140004861C8
:101B80000020F44908608020F14948610861800024
:101B90000861BDE8F08110B50446002C66D1EE491D
:101BA0008871F02008804FF4A07048800846808833
:101BB00049F2413188420BD0E748808846F604015B
:101BC000884205D0E448808845F2103188421AD115
:101BD0002C20E14908812A2048812B208881084651
:101BE000808846F60401884205D0DB48808845F2AB
:101BF0001031884206D14FF4A070D74908804FF4C5
:101C0000F0704880A1E0D448808845F210518842A5
:101C100010D14FF43050D04908814FF428504881FA
:101C20004FF42C5088814FF4F07008804FF44870C6
:101C300048808AE0C848808841F6631188420DD107
:101C40002C20C54908812B2048812A2088814FF407
:101C5000F07008804FF44870488076E02220BE493A
:101C6000088120204881212088816EE00120BA4926
:101C700088714FF4A0700880F02048800846808862
:101C800049F24131884205D0B348808845F210318D
:101C9000884207D12C20B04908812A2048812B2076
:101CA00088813FE0AC48808846F60401884207D12D
:101CB0002C20A94908812B2048812A20888131E0E5
:101CC000A548808845F21051884210D14FF4305019
:101CD000A14908814FF4285048814FF42C50888145
:101CE0004FF4487008804FF4F07048801AE09A482A
:101CF000808841F6631188420DD12C2096490881D5
:101D00002A2048812B2088814FF4487008804FF4A6
:101D1000F070488006E022208F4908812120488108
:101D2000202088818C48808846F60401884205D0AE
:101D30008948808845F21031884206D14FF4F0700E
:101D4000854908804FF4A07048800020FFF7BDFA55
:101D500010BD2DE9F04F86B004460D4690469946D9
:101D600004EB0800401E86B205EB0900401E87B256
:101D70007948808849F24131884215D07648808878
:101D800045F2103188420FD07348808846F604012E
:101D9000884209D07048807901287BD16E488088BC
:101DA00041F66311884275D16B494889FEF7B4FE4C
:101DB0004FF480706649086140004861201265490F
:101DC0000860802062494861086180000861401015
:101DD000086140004861E0B25E49086080205C49CB
:101DE0004861086180000861401008614000486156
:101DF00030125849086080205549486108618000C8
:101E000008614010086140004861F0B25149086023
:101E100080204F4948610861800008614E498889E7
:101E2000FEF77AFE4FF4807049490861400048612E
:101E300028124849086080204549486108618000AF
:101E400008614010086140004861E8B241490860FB
:101E500080203F49486108618000086140100861A6
:101E60004000486138123B49086080203849486189
:101E70000861800008614010086140004861F8B2C4
:101E80003449086080203249486108618000086157
:101E900077E1FFE73048808841F6631188427DD1C1
:101EA0002D480088A0EB0800001B84B205EB090058
:101EB000401E1FFA80F928494889FEF72DFE4FF48D
:101EC0008070234908614000486120122149086060
:101ED00080201F4948610861800008614010086146
:101EE00040004861E0B21B49086080201849486101
:101EF000086180000861401008614000486104EBFF
:101F00000800401E001213490860802010494861F3
:101F1000086180000861401008614000486104EBDE
:101F20000800401EC0B20B49086080200849486183
:101F300008618000086108498889FEF7EDFD4FF4CB
:101F4000807003490861400048612812014905E09A
:101F5000001001400C0C0140EC10002008608020B3
:101F6000FE49486108618000086140100861400036
:101F70004861E8B2FA4908608020F8494861086180
:101F80008000086140100861400048614FEA292044
:101F9000F34908608020F149486100E011E00861E0
:101FA00080000861401008614000486109F0FF00AE
:101FB000EB4908608020E9494861086180000861B8
:101FC000DFE0E848808845F2105188427ED1E5493B
:101FD0004889FEF7A1FD4FF48070E0490861400098
:101FE00048612012DE4908608020DC4948610861B0
:101FF00080000861DB494989491C88B2FEF78CFDE5
:102000004FF48070D549086140004861E0B2D4497E
:1020100008608020D1494861086180000861D14989
:102020004989891C88B2FEF777FD4FF48070CB494F
:102030000861400048613012C94908608020C749E2
:102040004861086180000861C6494989C91C88B295
:10205000FEF762FD4FF48070C0490861400048619E
:10206000F0B2BF4908608020BC4948610861800027
:102070000861BC498889FEF74FFD4FF48070B7496D
:102080000861400048612812B54908608020B349C2
:102090004861086180000861B2498989491C88B299
:1020A000FEF73AFD4FF48070AC490861400048618A
:1020B000E8B2AB4908608020A84948610861800007
:1020C0000861A8498989891C88B200E026E0FEF7EA
:1020D00023FD4FF48070A149086140004861381227
:1020E0009F49086080209D4948610861800008611F
:1020F0009C498989C91C88B2FEF70EFD4FF4807097
:102100009649086140004861F8B29549086080200E
:102110009249486108618000086132E09148807905
:1021200001280ED1AA46BB468E480088801B401E5F
:1021300080B201908B480088001B401E80B2009046
:1021400003E0A246B3460195009750200590512028
:102150000490522003905320029051460598FEF7B8
:1021600039FD59460498FEF735FD01990398FEF7AD
:1021700031FD00990298FEF72DFD29462046FEF715
:102180006DFD06B0BDE8F08F70B5044600267548B9
:102190000588408845437348808846F60401884294
:1021A00016D170488079012812D100206D498871BC
:1021B0002A2048812B20888100210846FEF74EFD09
:1021C0000120684988712B2048812A20888103E0FA
:1021D00000210846FEF742FDFEF718FD00260DE03F
:1021E0004FF480705D490861400048615C480460BC
:1021F00080204861086180000861761CAE42EFD300
:1022000070BD08B50121192002F0B8FA0121564825
:1022100002F0C9F84FF4F860ADF8000010208DF816
:10222000030003208DF8020069464C4801F0EAFFE4
:102230004FF4F861494802F092F84FF6FF70ADF89C
:102240000000694646480C3801F0DCFF4FF6FF718C
:1022500043480C3802F083F801210020FEF7BAFC55
:102260000020FEF7CBFC3F49888008468088FF2885
:102270000ADB084680884FF6FF71884204D039484F
:102280008088B0F5134F48D1D320FEF745FCFEF708
:1022900070FCFEF76EFCFEF76CFC32498880084645
:1022A00080884FF6FF7101EA00202E498880FEF7F2
:1022B00060FC2C49898808432A4988800846808820
:1022C00049F24131884228D04FF45A40FEF724FCAD
:1022D000FEF74FFC4FF45B40FEF71EFCFEF749FC97
:1022E00020498880084680884FF6FF7101EA002067
:1022F0001C4988804FF45C40FEF70EFCFEF739FC69
:102300001849898808431749888008468088B0F5AD
:10231000004F02D145F2105088801248818813A0E6
:1023200003F01AFA0F48808849F2413188427DD182
:10233000CF20FEF7F1FB0020FEF7FCFBC120FEF7EB
:10234000F9FB3020FEF7F6FBED20FEF7E5FB6420FD
:10235000FEF7F0FB0320FEF7EDFB0FE0001001405D
:102360000C0C0140EC10002000023000204C4344D3
:102370002049443A25780D0A000000001220FEF79B
:10238000D9FB8120FEF7D6FBE820FEF7C5FB8520B0
:10239000FEF7D0FB1020FEF7CDFB7A20FEF7CAFB3C
:1023A000CB20FEF7B9FB3920FEF7C4FB2C20FEF74B
:1023B000C1FB0020FEF7BEFB3420FEF7BBFB022072
:1023C000FEF7B8FBF720FEF7A7FB2020FEF7B2FBD5
:1023D000EA20FEF7A1FB0020FEF7ACFB0020FEF791
:1023E000A9FBC020FEF798FB1B20FEF7A3FBC12032
:1023F000FEF792FB0120FEF79DFBC520FEF78CFB4C
:102400003020FEF797FB3020FEF794FBC720FEF745
:1024100083FBB720FEF78EFB3620FEF77DFB4820BE
:10242000FEF788FB3A20FEF777FB00E0A8E0552096
:10243000FEF780FBB120FEF76FFB0020FEF77AFB72
:102440001A20FEF777FBB620FEF766FB0A20FEF7A0
:1024500071FBA220FEF76EFBF220FEF75DFB002071
:10246000FEF768FB2620FEF757FB0120FEF762FB14
:10247000E020FEF751FB0F20FEF75CFB2A20FEF761
:1024800059FB2820FEF756FB0820FEF753FB0E20D1
:10249000FEF750FB0820FEF74DFB5420FEF74AFBE9
:1024A000A920FEF747FB4320FEF744FB0A20FEF776
:1024B00041FB0F20FEF73EFB0020FEF73BFB002018
:1024C000FEF738FB0020FEF735FB0020FEF732FB5D
:1024D000E120FEF721FB0020FEF72CFB1520FEF784
:1024E00029FB1720FEF726FB0720FEF723FB112010
:1024F000FEF720FB0620FEF71DFB2B20FEF71AFB44
:102500005620FEF717FB3C20FEF714FB0520FEF7D4
:1025100011FB1020FEF70EFB0F20FEF70BFB3F20F8
:10252000FEF708FB3F20FEF705FB0F20FEF702FB3E
:102530002B20FEF7F1FA0020FEF7FCFA0020FEF750
:10254000F9FA0120FEF7F6FA3F20FEF7F3FA2A2007
:10255000FEF7E2FA0020FEF7EDFA0020FEF7EAFAB5
:102560000020FEF7E7FAEF20FEF7E4FA1120FEF76D
:10257000D3FA782001F0F9FC2920FEF7CDFAFCE32C
:10258000FE48808845F210518842F8D155214FF419
:102590007040FEF71FFBAA214FF20100FEF71AFB65
:1025A00052214FF20200FEF715FB08214FF2030003
:1025B000FEF710FB01214FF20400FEF70BFB0D218B
:1025C0004FF43040FEF706FB0D214BF20100FEF701
:1025D00001FB0D214BF20200FEF7FCFA34214FF40F
:1025E0003640FEF7F7FA34214BF20160FEF7F2FABB
:1025F00034214BF20260FEF7EDFA0D214FF4314029
:10260000FEF7E8FA0D214BF20110FEF7E3FA0D2177
:102610004BF20210FEF7DEFA34214FF43740FEF79A
:10262000D9FA34214BF20170FEF7D4FA34214BF27F
:102630000270FEF7CFFA00214FF43240FEF7CAFADB
:1026400000214BF20120FEF7C5FA00214BF20220D7
:10265000FEF7C0FA24214FF43840FEF7BBFA2421DC
:102660004BF60100FEF7B6FA24214BF60200FEF706
:10267000B1FA01214FF43F40FEF7ACFA0F214FF4BD
:102680003340FEF7A7FA0F214BF20130FEF7A2FA12
:102690000F214BF20230FEF79DFA34214FF43940FE
:1026A000FEF798FA34214BF60110FEF793FA342125
:1026B0004BF60210FEF78EFA08214FF43540FEF774
:1026C00089FA08214BF20150FEF784FA08214BF2F7
:1026D0000250FEF77FFA03214FF44240FEF77AFAE8
:1026E00024214FF43A40FEF775FA24214BF60120DD
:1026F000FEF770FA24214BF60220FEF76BFA002158
:102700004FF43C40FEF766FA78214BF60140FEF7A5
:1027100061FA00214BF60240FEF75CFA00214FF40B
:102720003D40FEF757FA78214BF60150FEF752FA7A
:1027300000214BF60250FEF74DFA00214FF43E40C7
:10274000FEF748FA64214BF60160FEF743FA0021D8
:102750004FF45140FEF73EFA33214DF20110FEF7DF
:1027600039FA00214DF20210FEF734FA34214DF20D
:102770000310FEF72FFA00214DF20410FEF72AFA9B
:102780003A214DF20510FEF725FA00214DF2061010
:10279000FEF720FA4A214DF20710FEF71BFA00213E
:1027A0004DF20810FEF716FA5C214DF20910FEF703
:1027B00011FA00214DF20A10FEF70CFA81214DF2B8
:1027C0000B10FEF707FA00214DF20C10FEF702FA8B
:1027D000A6214DF20D10FEF7FDF900214DF20E106D
:1027E000FEF7F8F9E5214DF20F10FEF7F3F901219C
:1027F0004DF21010FEF7EEF913214DF21110FEF715
:10280000E9F901214DF21210FEF7E4F954214DF2DD
:102810001310FEF7DFF901214DF21410FEF7DAF97B
:1028200082214DF21510FEF7D5F901214DF2161057
:10283000FEF7D0F9CA214DF21710FEF7CBF90221AD
:102840004DF21810FEF7C6F900214DF21910FEF7EF
:10285000C1F902214DF21A10FEF7BCF901214DF227
:102860001B10FEF7B7F902214DF21C10FEF7B2F96A
:1028700034214DF21D10FEF7ADF902214DF21E106C
:10288000FEF7A8F967214DF21F10FEF7A3F9022108
:102890004DF22010FEF79EF984214DF22110FEF733
:1028A00099F902214DF22210FEF794F9A4214DF27C
:1028B0002310FEF78FF902214DF22410FEF78AF95A
:1028C000B7214DF22510FEF785F902214DF22610B1
:1028D000FEF780F9CF214DF22710FEF77BF9022198
:1028E0004DF22810FEF776F9DE214DF22910FEF7A1
:1028F00071F902214DF22A10FEF76CF9F2214DF226
:102900002B10FEF767F902214DF22C10FEF762F949
:10291000FE214DF22D10FEF75DF903214DF22E1030
:10292000FEF758F910214DF22F10FEF753F903214D
:102930004DF23010FEF74EF933214DF23110FEF713
:1029400049F903214DF23210FEF744F96D214DF2A1
:102950003310FEF73FF900214FF45240FEF73AF9E9
:1029600033214DF20120FEF735F900214DF202200E
:10297000FEF730F934214DF2032001E0EC10002085
:10298000FEF728F900214DF20420FEF723F93A2141
:102990004DF20520FEF71EF900214DF20620FEF74C
:1029A00019F94A214DF20720FEF714F900214DF2E2
:1029B0000820FEF70FF95C214DF20920FEF70AF915
:1029C00000214DF20A20FEF705F981214DF20B207E
:1029D000FEF700F900214DF20C20FEF7FBF8A621CE
:1029E0004DF20D20FEF7F6F800214DF20E20FEF715
:1029F000F1F8E5214DF20F20FEF7ECF801214DF240
:102A00001020FEF7E7F813214DF21120FEF7E2F84F
:102A100001214DF21220FEF7DDF854214DF2132072
:102A2000FEF7D8F801214DF21420FEF7D3F88221E9
:102A30004DF21520FEF7CEF801214DF21620FEF7DB
:102A4000C9F8CA214DF21720FEF7C4F802214DF251
:102A50001820FEF7BFF800214DF21920FEF7BAF852
:102A600002214DF21A20FEF7B5F801214DF21B208C
:102A7000FEF7B0F802214DF21C20FEF7ABF834212E
:102A80004DF21D20FEF7A6F802214DF21E20FEF7A2
:102A9000A1F867214DF21F20FEF79CF802214DF2AC
:102AA0002020FEF797F884214DF22120FEF792F8BE
:102AB00002214DF22220FEF78DF8A4214DF22320B1
:102AC000FEF788F802214DF22420FEF783F8B721A3
:102AD0004DF22520FEF77EF802214DF22620FEF76A
:102AE00079F8CF214DF22720FEF774F802214DF23C
:102AF0002820FEF76FF8DE214DF22920FEF76AF854
:102B000002214DF22A20FEF765F8F2214DF22B202A
:102B1000FEF760F802214DF22C20FEF75BF8FE2153
:102B20004DF22D20FEF756F803214DF22E20FEF730
:102B300051F810214DF22F20FEF74CF803214DF2F1
:102B40003020FEF747F833214DF23120FEF742F8EE
:102B500003214DF23220FEF73DF86D214DF2332076
:102B6000FEF738F800214FF45340FEF733F83321D5
:102B70004DF20130FEF72EF800214DF20230FEF743
:102B800029F834214DF20330FEF724F800214DF2EC
:102B90000430FEF71FF83A214DF20530FEF71AF81F
:102BA00000214DF20630FEF715F84A214DF20730AC
:102BB000FEF710F800214DF20830FEF70BF85C210B
:102BC0004DF20930FEF706F800214DF20A30FEF70B
:102BD00001F881214DF20B30FDF7FCFF00214DF291
:102BE0000C30FDF7F7FFA6214DF20D30FDF7F2FF97
:102BF00000214DF20E30FDF7EDFFE5214DF20F30D3
:102C0000FDF7E8FF01214DF21030FDF7E3FF13213E
:102C10004DF21130FDF7DEFF01214DF21230FDF7CC
:102C2000D9FF54214DF21330FDF7D4FF01214DF2AD
:102C30001430FDF7CFFF82214DF21530FDF7CAFFAA
:102C400001214DF21630FDF7C5FFCA214DF21730B4
:102C5000FDF7C0FF02214DF21830FDF7BBFF002148
:102C60004DF21930FDF7B6FF02214DF21A30FDF793
:102C7000B1FF01214DF21B30FDF7ACFF02214DF2F7
:102C80001C30FDF7A7FF34214DF21D30FDF7A2FFE8
:102C900002214DF21E30FDF79DFF67214DF21F30DE
:102CA000FDF798FF02214DF22030FDF793FF8421BC
:102CB0004DF22130FDF78EFF02214DF22230FDF75B
:102CC00089FFA4214DF22330FDF784FF02214DF24C
:102CD0002430FDF77FFFB7214DF22530FDF77AFF55
:102CE00002214DF22630FDF775FFCF214DF227303E
:102CF000FDF770FF02214DF22830FDF76BFFDE215A
:102D00004DF22930FDF766FF02214DF22A30FDF722
:102D100061FFF2214DF22B30FDF75CFF02214DF2F5
:102D20002C30FDF757FFFE214DF22D30FDF752FFFD
:102D300003214DF22E30FDF74DFF10214DF22F30C3
:102D4000FDF748FF03214DF23030FDF743FF3321FB
:102D50004DF23130FDF73EFF03214DF23230FDF7E9
:102D600039FF6D214DF23330FDF734FF00214FF470
:102D70005440FDF72FFF332100E088E34DF201407E
:102D8000FDF728FF00214DF20240FDF723FF34211B
:102D90004DF20340FDF71EFF00214DF20440FDF708
:102DA00019FF3A214DF20540FDF714FF00214DF2C5
:102DB0000640FDF70FFF4A214DF20740FDF70AFFDD
:102DC00000214DF20840FDF705FF5C214DF209405E
:102DD000FDF700FF00214DF20A40FDF7FBFE8121C7
:102DE0004DF20B40FDF7F6FE00214DF20C40FDF7D1
:102DF000F1FEA6214DF20D40FDF7ECFE00214DF253
:102E00000E40FDF7E7FEE5214DF20F40FDF7E2FE33
:102E100001214DF21040FDF7DDFE13214DF211406E
:102E2000FDF7D8FE01214DF21240FDF7D3FE5421EB
:102E30004DF21340FDF7CEFE01214DF21440FDF797
:102E4000C9FE82214DF21540FDF7C4FE01214DF26D
:102E50001640FDF7BFFECA214DF21740FDF7BAFE3E
:102E600002214DF21840FDF7B5FE00214DF2194048
:102E7000FDF7B0FE02214DF21A40FDF7ABFE012135
:102E80004DF21B40FDF7A6FE02214DF21C40FDF75E
:102E9000A1FE34214DF21D40FDF79CFE02214DF2B2
:102EA0001E40FDF797FE67214DF21F40FDF792FE91
:102EB00002214DF22040FDF78DFE84214DF221408C
:102EC000FDF788FE02214DF22240FDF783FEA4218A
:102ED0004DF22340FDF77EFE02214DF22440FDF726
:102EE00079FEB7214DF22540FDF774FE02214DF227
:102EF0002640FDF76FFECF214DF22740FDF76AFE19
:102F000002214DF22840FDF765FEDE214DF22940F9
:102F1000FDF760FE02214DF22A40FDF75BFEF22133
:102F20004DF22B40FDF756FE02214DF22C40FDF7ED
:102F300051FEFE214DF22D40FDF74CFE03214DF2D6
:102F40002E40FDF747FE10214DF22F40FDF742FEC7
:102F500003214DF23040FDF73DFE33214DF231406B
:102F6000FDF738FE03214DF23240FDF733FE6D21AF
:102F70004DF23340FDF72EFE00214FF45540FDF792
:102F800029FE33214DF20150FDF724FE00214DF2C0
:102F90000250FDF71FFE34214DF20350FDF71AFEDB
:102FA00000214DF20450FDF715FE3A214DF2055077
:102FB000FDF710FE00214DF20650FDF70BFE4A21F1
:102FC0004DF20750FDF706FE00214DF20850FDF7C7
:102FD00001FE5C214DF20950FDF7FCFD00214DF290
:102FE0000A50FDF7F7FD81214DF20B50FDF7F2FD80
:102FF00000214DF20C50FDF7EDFDA6214DF20D50D4
:10300000FDF7E8FD00214DF20E50FDF7E3FDE5214F
:103010004DF20F50FDF7DEFD01214DF21050FDF78E
:10302000D9FD13214DF21150FDF7D4FD01214DF2D0
:103030001250FDF7CFFD54214DF21350FDF7CAFD9C
:1030400001214DF21450FDF7C5FD82214DF21550BE
:10305000FDF7C0FD01214DF21650FDF7BBFDCA2161
:103060004DF21750FDF7B6FD02214DF21850FDF755
:10307000B1FD00214DF21950FDF7ACFD02214DF2DA
:103080001A50FDF7A7FD01214DF21B50FDF7A2FDDF
:1030900002214DF21C50FDF79DFD34214DF21D50D3
:1030A000FDF798FD02214DF21E50FDF793FD6721BB
:1030B0004DF21F50FDF78EFD02214DF22050FDF71D
:1030C00089FD84214DF22150FDF784FD02214DF24E
:1030D0002250FDF77FFDA4214DF22350FDF77AFD2C
:1030E00002214DF22450FDF775FDB7214DF2255018
:1030F000FDF770FD02214DF22650FDF76BFDCF214B
:103100004DF22750FDF766FD02214DF22850FDF7E4
:1031100061FDDE214DF22950FDF75CFD02214DF2EB
:103120002A50FDF757FDF2214DF22B50FDF752FDCD
:1031300002214DF22C50FDF74DFDFE214DF22D5098
:10314000FDF748FD03214DF22E50FDF743FD102100
:103150004DF22F50FDF73EFD03214DF23050FDF7AB
:1031600039FD33214DF23150FDF734FD03214DF28D
:103170003250FDF72FFD6D214DF23350FDF72AFD42
:1031800000214FF45640FDF725FD33214DF201603B
:10319000FDF720FD00214DF20260FDF71BFD3421FB
:1031A0004DF20360FDF716FD00214DF20460FDF7BE
:1031B00011FD3A214DF20560FDF70CFD00214DF2A5
:1031C0000660FDF707FD4A214DF20760FDF702FD9D
:1031D00000214DF20860FDF7FDFC5C214DF2096015
:1031E000FDF7F8FC00214DF20A60FDF7F3FC8121A8
:1031F0004DF20B60FDF7EEFC00214DF20C60FDF787
:10320000E9FCA6214DF20D60FDF7E4FC00214DF232
:103210000E60FDF7DFFCE5214DF20F60FDF7DAFCF3
:1032200001214DF21060FDF7D5FC13214DF2116024
:10323000FDF7D0FC01214DF21260FDF7CBFC5421CB
:103240004DF21360FDF7C6FC01214DF21460FDF74D
:10325000C1FC82214DF21560FDF7BCFC01214DF24D
:103260001660FDF7B7FCCA214DF21760FDF7B2FCFE
:1032700002214DF21860FDF7ADFC00214DF21960FE
:10328000FDF7A8FC02214DF21A60FDF7A3FC012115
:103290004DF21B60FDF79EFC02214DF21C60FDF714
:1032A00099FC34214DF21D60FDF794FC02214DF292
:1032B0001E60FDF78FFC67214DF21F60FDF78AFC51
:1032C00002214DF22060FDF785FC84214DF2216042
:1032D000FDF780FC02214DF22260FDF77BFCA4216A
:1032E0004DF22360FDF776FC02214DF22460FDF7DC
:1032F00071FCB7214DF22560FDF76CFC02214DF207
:103300002660FDF767FCCF214DF22760FDF762FCD8
:1033100002214DF22860FDF75DFCDE214DF22960AF
:10332000FDF758FC02214DF22A60FDF753FCF22113
:103330004DF22B60FDF74EFC02214DF22C60FDF7A3
:1033400049FCFE214DF22D60FDF744FC03214DF2B6
:103350002E60FDF73FFC10214DF22F60FDF73AFC87
:1033600003214DF23060FDF735FC33214DF2316021
:10337000FDF730FC03214DF23260FDF72BFC6D218F
:103380004DF23360FDF726FC55214FF47040FDF7F8
:1033900021FCAA214FF20100FDF71CFC52214FF243
:1033A0000200FDF717FC08214FF20300FDF712FCA5
:1033B00000214FF20400FDF70DFCCC214FF4314009
:1033C000FDF708FC00214BF20110FDF703FC05217D
:1033D0004FF43640FDF7FEFB70214FF43740FDF708
:1033E000F9FB70214BF20170FDF7F4FB01214FF462
:1033F0003840FDF7EFFB03214BF60100FDF7EAFB38
:1034000003214BF60200FDF7E5FB03214BF6030019
:10341000FDF7E0FB02214FF43C40FDF7DBFB002110
:103420004BF60140FDF7D6FB00214BF60240FDF7BD
:10343000D1FBD0214FF44940FDF7CCFB02214CF6E3
:103440000110FDF7C7FB50214CF60210FDF7C2FB3F
:1034500050214CF60310FDF7BDFB50214CF6041033
:10346000FDF7B8FB00214FF45450FDF7B3FB552195
:103470004FF46850FDF7AEFB4FF48850FDF74CFB5E
:10348000782000F04EFD4FF42450FDF745FB01205D
:10349000FEF781FB0120F74908600020FEF774FE6B
:1034A00008BD2DE9FC4F05460E4617469846DDF847
:1034B0002C9000200190F048808846F60401884254
:1034C00029D1ED488079012825D1AB463546EA4817
:1034D0000088C01B401E86B24746E7480088A0EB24
:1034E0000B00401E1FFA80F80020E34988712A2053
:1034F00048812B20888143463A4631462846CDF8FC
:103500000090FFF7CEFF0120DB4988712B20488116
:103510002A20888127E0781B401C80B20190344625
:103520001FE021462846FDF799FBFDF76FFB4FF0A2
:10353000000A11E04FF48070D049086140004861F2
:10354000CF48C0F800908020486108618000086181
:103550000AF101001FFA80FA01988245EADB601C3B
:1035600084B24445DDDDBDE8FC8F2DE9F84F074608
:103570000D4690469946DDF828B0A8EB0700401CA0
:103580001FFA80FAA9EB0500401C80B200900024CD
:1035900020E0281981B23846FDF760FBFDF736FBC5
:1035A000002613E04FF48070B44908614000486180
:1035B00004FB0A603BF81000B14908608020AF4965
:1035C0004861086180000861701C86B25645E9DBDD
:1035D000601C84B200988442DBDBBDE8F88F2DE9E3
:1035E000FF4F84B081468A460020039002900698DF
:1035F000A0EB09050798A0EB0A06CDF80490CDF8DA
:1036000000A0002D01DD012705E00DB9002702E033
:103610004FF0FF376D42002E02DD4FF0010806E04B
:1036200016B94FF0000802E04FF0FF387642B5427D
:1036300001DD2C4600E034464FF0000B21E0009AFB
:1036400091B2019A90B2FEF773F803982844039060
:103650000298304402900398A04205DD0398001BB5
:1036600003900198384401900298A04205DD029829
:10367000001B02900098404400900BF101001FFADB
:1036800080FB601C8345DADD08B0BDE8F08FF0B543
:1036900004460D4616461F462B463246294620460E
:1036A000FFF79DFF3B46224629462046FFF797FF3E
:1036B0003B46324639462046FFF791FF3B463246AD
:1036C00029463046FFF78BFFF0BD2DE9F043064653
:1036D0000F469046002445460320A0EB48093CE0F5
:1036E0007A1B91B2321990B2FEF722F83A1B91B2CE
:1036F000721990B2FEF71CF83A1991B2721990B291
:10370000FEF716F87A1991B2321990B2FEF710F856
:103710007A1991B2321B90B2FEF70AF83A1991B2B7
:10372000721B90B2FEF704F87A1B91B2321B90B272
:10373000FDF7FEFF3A1B91B2721B90B2FDF7F8FF46
:10374000641CB9F1000F03DAA000801D814404E07D
:10375000601B80000A3081446D1EAC42C0DDBDE8B4
:10376000F0832DE9F84F80460E4617461C46B346B7
:103770002046E31704EB5373DB1021464FEAE47C49
:1037800004EB5C7C4FEAEC0CA4EBCC0CBCF1000F1E
:1037900002D04FF0010C01E04FF0000C63442246D0
:1037A00004EBD27C4FEA6C0C03FB0CF3DBB200930E
:1037B000A7F12000C7B2002556E00C2C07D107EB7B
:1037C0004700304901EB800010F8059013E0102C01
:1037D00005D12D4800EB071010F805900BE0182CD0
:1037E00007D107EBC700294901EB800010F80590CD
:1037F00001E0BDE8F88F4FF0000A2FE009F08000EB
:1038000030B12348028831464046FDF7ABFF07E060
:103810000A9828B91F48028831464046FDF7A2FFA2
:103820004FEA49604FEA1069701C86B2124840881E
:10383000B04200DCDDE7A6EB0B00A0420AD15E46F9
:1038400008F101001FFA80F80B480088404500DCB1
:10385000CFE706E00AF1010000F0FF0ABAF1080F15
:10386000CCDB00BF681CC5B200988542A5DB00BF59
:10387000BFE70000A8012242EC1000200010014028
:103880000C0C0140A0680008146D000804730008C7
:10389000140000201600002010B50246012000E0B0
:1038A00050430B1EA1F10104E1B2F9D110BD2DE985
:1038B000FF4F81B0074691461E460E9D4FF0000A0D
:1038C000002439E0301B401EC1B20A20FFF7E4FF9C
:1038D000B9FBF0F00A21B0FBF1F201FB1208BAF1DA
:1038E000000F16D1701EA04213DDB8F1000F0ED1EB
:1038F0000020AB4605EBDB71491001FB0471009021
:1039000088B22B4620220299FFF72BFF12E04FF0DE
:10391000010A0020AB4605EBDB71491001FB047185
:10392000009088B208F13001CAB22B460299FFF725
:1039300018FF00BF601CC4B2B442C3DB05B0BDE8D1
:10394000F08F2DE9FF4F82B0064692461F46DDE913
:103950000F480020019000254DE0781B401EC1B2A9
:103960000A20FFF799FFBAFBF0F00A21B0FBF1F251
:1039700001FB1209019850BB781EA84227DDB9F15E
:10398000000F22D108F0800078B108F00100A346B2
:1039900004EBDB71491001FB0561009088B22346FE
:1039A00030220399FFF7DDFE0EE008F00100A34688
:1039B00004EBDB71491001FB0561009088B22346DE
:1039C00020220399FFF7CDFE13E00120019008F0BB
:1039D0000100A34604EBDB71491001FB0561009077
:1039E00088B209F13001CAB223460399FFF7B9FE44
:1039F00000BF681CC5B2BD42AFDB06B0BDE8F08FAA
:103A00002DE9F84704460D4690469946DDE90967D9
:103A100004F0FF0A08EB04001FFA80F809EB050028
:103A20001FFA80F916E0444502DB5446A81985B216
:103A30004D4500DB14E0002000903A7833462946DB
:103A40002046FFF78EFE304606EBD07104EB610195
:103A50008CB27F1C38787E2802DC38782028E2DAA5
:103A600000BFBDE8F88770B504460D461646202015
:103A7000FDF752F84FF480702F490861400048610B
:103A80002E48046080204861086180000861212080
:103A9000FDF742F84FF48070274908614000486103
:103AA0002648056080204861086180000861502038
:103AB000FDF732F84FF480701F49086140004861FB
:103AC0001E4804608020486108618000086152201F
:103AD000FDF722F84FF480701749086140004861F3
:103AE0001648056080204861086180000861512007
:103AF000FDF712F84FF480700F49086140004861EB
:103B00000E480660802048610861800008615320EB
:103B1000FDF702F84FF480700749086140004861E2
:103B20000648036080204861086180000861222007
:103B3000FCF7F2FF70BD0000001001400C0C0140CA
:103B400000B587B001214FF4017000F017FE4FF46B
:103B5000004000F077FD0220ADF8040000208DF851
:103B6000070001A9A54800F04DFBA54801F0DCF8CD
:103B7000002002908DF80C008DF80D004FF46020AD
:103B800004900020059001208DF8180002A99C489F
:103B900001F0F1F801219A4801F019F9984801F073
:103BA00038F900BF964801F039F90028FAD1944855
:103BB00001F03EF900BF924801F03FF90028FAD128
:103BC00007B000BD10B504460723012221468C48EA
:103BD00001F069F901218A4801F039F900BF022199
:103BE000874801F0A5FA0028F9D0854801F0C2F90C
:103BF00010BD2DE9F04107460C460025002608E0DF
:103C00003846FFF7DFFF0544052000F0AEF9701CD1
:103C1000C6B2A642F4DBB5FBF4F080B2BDE8F08199
:103C200000B585B001214FF4064000F0A7FD4FF428
:103C3000004000F007FD7348806940F004007149BE
:103C400088616E48001D00686FF30B006B49091D09
:103C500008606C48806940F400706A4988614FF4DC
:103C6000C020009000208DF8040001208DF8050090
:103C70004FF4602002900020039001208DF8100086
:103C800069465F4801F077F801215D4801F09FF82F
:103C90004FF4C020009000208DF8040001208DF822
:103CA00005004FF4602002900020039001208DF861
:103CB00010006946544801F05EF80121524801F0B5
:103CC00086F8002000908DF8040001208DF8050092
:103CD0004FF4602002900020039001208DF8100026
:103CE00069464A4801F047F80121484801F06FF859
:103CF000434801F08EF8444801F08BF8434801F046
:103D000088F800BF3E4801F089F840B13E4801F014
:103D100085F820B13D4801F081F80028F2D13848FB
:103D200001F086F8384801F083F8384801F080F84F
:103D300000BF334801F081F840B1334801F07DF80D
:103D400020B1324801F079F80028F2D10023012295
:103D500019462B4801F0A7F80023012211462A48F2
:103D600001F0A1F8002301220221284801F09BF86C
:103D700000BF0221224801F0DBF950B9022122489C
:103D800001F0D6F928B10221204801F0D1F900282C
:103D9000EFD101211A4801F05AF801211A4801F027
:103DA00056F80121194801F052F805B000BD10B5D0
:103DB000044600BF0221124801F0BAF90028F9D0E8
:103DC0000F4801F0D7F810BD10B5044600BF02211E
:103DD0000D4801F0ADF90028F9D00B4801F0CAF800
:103DE00010BD10B5044600BF0221084801F0A0F93B
:103DF0000028F9D0054801F0BDF810BD00080140C9
:103E0000002401400010024000280140003C014015
:103E100008B50121142000F0B1FC0121304800F068
:103E2000C2FA4FF40040ADF8000048208DF80300BE
:103E300069462C4800F0E6F92020ADF80000482043
:103E40008DF803006946284800F0DCF90120ADF840
:103E5000000028208DF803006946224800F0D2F9BE
:103E600008BD10B5044614B10120204908701F4850
:103E7000007828B320211C4800F057FA58B14FF4BD
:103E80000041184800F051FA28B10121154800F00E
:103E90004CFA012814D10A2000F067F800201349D9
:103EA00008702021104800F040FA08B9012010BD28
:103EB0004FF400410B4800F038FA78B90220F6E7D9
:103EC0002021094800F031FA012807D1C103054833
:103ED00000F02BFA012801D1044908700020E6E720
:103EE00000023000000801400010014018000020CE
:103EF00010B56FF0040000F0F8FE2E4800682E495F
:103F0000B0FBF1F02D4908700846007800EB400145
:103F1000C1EBC0104FF6FF7101EAC00028490880CC
:103F200010BD0146254A12784A434FF0E0235A61FA
:103F300000229A611A46126942F001021A6100BF1A
:103F40004FF0E022106900F001021AB100F4803253
:103F5000002AF5D04FF0E022126922F001024FF062
:103F6000E0231A6100229A6170470146144A1288C0
:103F70004A434FF0E0235A6100229A611A461269BF
:103F800042F001021A6100BF4FF0E022106900F018
:103F900001021AB100F48032002AF5D04FF0E0227D
:103FA000126922F001024FF0E0231A6100229A61A7
:103FB000704700000000002000127A001A00002064
:103FC0001C00002000BF704700BF4A4A128802F060
:103FD0004002002AF9D0C2B2464B1B1D1A8070471E
:103FE00010B586B00446012144F2040000F0C6FB7F
:103FF0004FF40070ADF8140003208DF8160018205F
:104000008DF8170005A93C4800F0FCF84FF48060DB
:10401000ADF8140004208DF8170005A9364800F00B
:10402000F1F825208DF8000003208DF801008DF8AF
:10403000020001208DF80300684600F00CFE019498
:104040000020ADF80800ADF80A00ADF80C00ADF89E
:1040500010000C20ADF80E0001A9264800F035FC38
:10406000012240F22551234800F0C7FC01212148DC
:1040700000F0B7FC06B010BD10B540F225511D4848
:1040800000F0A0FD10B31B4800F01CFDC4B21B489B
:10409000008800F40040C8B91848008800F4804047
:1040A00060B10A2C03D000201449088020E0134896
:1040B000008840F400401149088019E00D2C06D119
:1040C0000E48008840F480400C49088010E00B48FE
:1040D0000088C0F30D000A490C5408480088401CB1
:1040E0000649088008460088C72801DD00200880AE
:1040F00010BD0000003801400008014024000020ED
:10410000FA1000200948804709480047FEE7FEE70B
:10411000FEE7FEE7FEE7FEE7FEE7FEE7FEE7FEE777
:1041200004480549054A064B704700007708000817
:10413000310100082812002028180020281400202F
:104140002814002010B50446CC48844208D101212F
:10415000042000F02DFB0021042000F029FB46E0A4
:10416000C748844208D10121082000F021FB00212A
:10417000082000F01DFB3AE0C248844208D101212A
:10418000102000F015FB0021102000F011FB2EE0A4
:10419000BD48844208D10121202000F009FB002104
:1041A000202000F005FB22E0B848844208D101211C
:1041B000402000F0FDFA0021402000F0F9FA16E05E
:1041C000B348844208D10121802000F0F1FA002197
:1041D000802000F0EDFA0AE0AE48844207D10121C8
:1041E000801500F0E5FA0021A01500F0E1FA10BDFD
:1041F00010B50121084600F0DBFA0021012000F093
:10420000D7FA10BD2DE9F041024600250026002016
:1042100000230024002791F803C00CF00F0591F84B
:1042200003C00CF0100CBCF1000F03D091F802C0D9
:104230004CEA050591F800C0BCF1000F31D01468BC
:1042400000202BE04FF0010C0CFA00F3B1F800C095
:104250000CEA03069E4220D183004FF00F0C0CFAAB
:1042600003F7BC4305FA03FC4CEA040491F803C0CD
:10427000BCF1280F06D14FF0010C0CFA00FCC2F87B
:1042800014C00AE091F803C0BCF1480F05D14FF00B
:10429000010C0CFA00FCC2F810C0401C0828D1D355
:1042A0001460B1F800C0BCF1FF0F34DD5468002089
:1042B0002EE000F1080C4FF0010808FA0CF3B1F8F9
:1042C00000C00CEA03069E4221D183004FF00F0C80
:1042D0000CFA03F7BC4305FA03FC4CEA040491F81A
:1042E00003C0BCF1280F05D100F1080C08FA0CF846
:1042F000C2F8148091F803C0BCF1480F07D100F157
:10430000080C4FF0010808FA0CF8C2F81080401CA5
:104310000828CED35460BDE8F0814FF6FF710180CC
:10432000022181700421C170704702460020936809
:104330000B400BB1012000E0002070470146886867
:1043400080B2704702460020D3680B400BB10120B9
:1043500000E0002070470146C86880B270470161E4
:104360007047416170470AB1016100E041617047E7
:10437000C16070474FF480320A438261816182617B
:1043800082698269704702460020434B18684FF6E5
:104390008073184040EA021008433F4B1860704792
:1043A0003E49C8617047F0B50A4600230024002149
:1043B000002500F00046B6F1004F02D1364EF169FB
:1043C00001E0354E7168C0F3034583B200F4401636
:1043D000B6F5401F08D121F070612F4E766826F0A7
:1043E00070662D4F7E6012E000F48016B6F5801FD7
:1043F00006D1032606FA05F4A14341F0706106E0F8
:10440000460D360103FA06F6B14341F0706122B160
:10441000460D360103FA06F6314300F00046B6F1C8
:10442000004F02D11C4EF16101E01B4E7160F0BDE6
:1044300030B500228B071C0F0F2303FA04F2164B32
:1044400008338C1053F824309343134C08348D10E8
:1044500044F8253023468C1053F824308C07240F61
:1044600000FA04F423430C4C08348D1044F8253032
:1044700030BD0A49DC310860704700000008014087
:10448000000C0140001001400014014000180140E0
:10449000001C0140002001400000014000002042BB
:1044A000DF48006840F00100DD49086008464068C8
:1044B000DC490840DA49486008460068DA490840A3
:1044C000D74908600846006820F480200860084644
:1044D000406820F4FE0048604FF41F008860704779
:1044E000CF49096821F48031CD4A1160114609682D
:1044F00021F480211160B0F5803F03D0B0F5802F0A
:104500000ED106E0C649096841F48031C44A116001
:1045100007E0C349096841F4A021C14A116000E0E5
:1045200000BF00BF704710B50146002200230020E5
:104530004A11012A02D1BA4C236806E0022A02D1AC
:10454000B74C236A01E0B64C636A01F01F020124F4
:1045500094401C400CB1012000E0002010BD38B593
:10456000002000900024002500BF3120FFF7DBFF72
:1045700005460098401C00900098B0F5A06F01D04F
:10458000002DF2D03120FFF7CEFF08B1012400E06A
:104590000024204638BD01460020A14A106820F0C2
:1045A000F80040EAC10010607047A04908607047F9
:1045B000024600209A4B586820F47C1042EA01031E
:1045C0001843974B586070479849086670470146F2
:1045D0000020934A506820F0030008435060704761
:1045E0008F48406800F00C007047014600208C4A5C
:1045F000506820F0F00008435060704701460020EA
:10460000874A506820F4E0600843506070470146D4
:104610000020834A506820F4605040EAC100506096
:10462000704729B17E4A527A02437D4B5A7204E0A8
:104630007B4A527A82437A4B5A7270477B49D8310F
:104640000860704701460020754A506820F44040D9
:104650000843506070470021714A20321170704A3F
:1046600082F82010012802D004280AD104E0012198
:104670006B4A2032117005E00521694A2032117021
:1046800000E000BF00BF7047694908607047644997
:10469000096A0143624A11627047654944390860FA
:1046A000704730B500210022002400235C4D6D6866
:1046B00005F00C0121B1042905D0082923D105E01A
:1046C0005C4D056022E05B4D05601FE0544D6D6858
:1046D00005F47012524D6D6805F48034022505EB27
:1046E00092421CB9544D554305600BE04C4D6D682A
:1046F00005F400351DB1504D5543056002E04D4DA8
:104700005543056002E04B4D056000BF00BF444DBE
:104710006D6805F0F0010909484D6B5C0568DD40E6
:1047200045603F4D6D6805F4E061090A434D6B5CDF
:104730004568DD4085603A4D6D6805F46051C90AF1
:104740003E4D6B5C4568DD40C560354D6D6805F4D8
:104750004041890B3A4D6B5CC568B5FBF3F50561CB
:1047600030BD29B12E4A526902432D4B5A6104E0F3
:104770002B4A526982432A4B5A61704729B1284A11
:1047800092690243264B9A6104E0254A926982436A
:10479000234B9A61704729B1214AD2690243204BC9
:1047A000DA6104E01E4AD26982431D4BDA61704728
:1047B00029B11B4AD2680243194BDA6004E0184A57
:1047C000D2688243164BDA60704729B1144A1269E5
:1047D0000243134B1A6104E0114A12698243104BE1
:1047E0001A61704712494039086070470F49C86420
:1047F00070470B49C87170470948406A40F08070A3
:1048000007494862704701460020054A92680A40FD
:104810000AB1012000E0002070470149887270470A
:10482000001002400000FFF8FFFFF6FE00004242C9
:104830008004424200127A0000093D002600002058
:104840003600002010B50446FB48844209D10121FE
:104850008803FFF7ADFF00214FF48040FFF7A8FF6A
:1048600032E0F648844209D101214804FFF7ADFF48
:1048700000214FF40030FFF7A8FF25E0F048844204
:1048800009D101218804FFF7A0FF00214FF4802007
:10489000FFF79BFF18E0EB48844209D10121C804CF
:1048A000FFF793FF00214FF40020FFF78EFF0BE08E
:1048B000E548844208D101210805FFF786FF002161
:1048C0004FF48010FFF781FF10BD2DE9F04786B04F
:1048D00005460E460024A24600BFA1460027B08927
:1048E00000B100BF2F462C8A4CF6FF700440F088C0
:1048F00004432C82AC894EF6F3100440B088318911
:104900000843718908430443AC81AC8A4FF6FF40E9
:104910000440B0890443AC8201A8FFF7C2FEC64838
:10492000874202D1DDF810A001E0DDF80CA0A889D3
:1049300000F4004040B10AEBCA0000EB0A103168F5
:104940004900B0FBF1F807E00AEBCA0000EB0A10DF
:1049500031688900B0FBF1F86420B8FBF0F0040185
:104960002009642101FB1089A88900F4004040B1AE
:10497000322000EBC900B0FBF1F000F00700044367
:1049800008E0322000EB09106421B0FBF1F000F0E8
:104990000F0004432C8106B0BDE8F0874FF4165198
:1049A000016000218180C18001810C2141810021B1
:1049B0008181704710B502460020108A4FF2FF0334
:1049C00018400B884C8823438C882343CC8823438E
:1049D0001843108210BD0021018041808180C18078
:1049E000704721B1828942F40052828104E08289B9
:1049F0004DF6FF731A4082817047F0B503460024DC
:104A000000260025002040F66A17B94200D100BFF9
:104A10001846C1F3421401F01F06012707FA06F5F4
:104A2000012C01D10C3004E0022C01D1103000E047
:104A300014301AB107682F43076002E00768AF43DC
:104A40000760F0BD1AB1838A0B43838202E0838A38
:104A50008B4383827047028A4FF6F0731A400282BA
:104A6000028A0A430282704782894FF2FF731A401A
:104A7000828182890A438281704721B1828942F012
:104A80000202828104E082894FF6FD731A4082811E
:104A90007047028A4FF6DF731A400282028A0A4385
:104AA0000282704721B1028A42F48042028204E00D
:104AB000028A4BF6FF731A4002827047C1F3080264
:104AC0008280704701468888C0F30800704781895A
:104AD00041F0010181817047028BD2B20283028BC7
:104AE00042EA012202837047028B02F47F42028372
:104AF000028B0A430283704721B1828A42F020026E
:104B0000828204E0828A4FF6DF731A408282704705
:104B100021B1828A42F01002828204E0828A4FF63A
:104B2000EF731A408282704721B1828A42F00802F4
:104B3000828204E0828A4FF6F7731A4082827047BD
:104B400021B1828942F40042828103E08289C2F36A
:104B50000E028281704721B1828A42F40062828211
:104B600004E0828A4FF2FF731A4082827047828A81
:104B70004FF6FB731A408282828A0A438282704710
:104B800021B1828A42F00202828204E0828A4FF6D8
:104B9000FD731A408282704702460020B1F5007F03
:104BA00000D100BF13880B400BB1012000E00020B2
:104BB000704701F40072B2F5007F00D100BFCA4314
:104BC0000280704770B502460024002300250020B3
:104BD00040F66A16B14200D100BFC1F3421501F0A0
:104BE0001F03012606FA03F3012D02D196893340F3
:104BF00006E0022D02D1168A334001E0968A334046
:104C00000C12012606FA04F41688344013B10CB1D4
:104C1000012000E0002070BD10B50022002340F606
:104C20006A14A14200D100BF0A1201249440A3B229
:104C3000DC43048010BD0000003801400044004007
:104C400000480040004C0040005000403149014302
:104C5000314A1160704770B5002100230F22C478DB
:104C600004B32D4C246804F4E064C4F5E064210A24
:104C7000C1F10403CA40447804FA03F18478144073
:104C800021430901254C0678A155047804F01F053D
:104C90000124AC4005786D11AD0005F1E025C5F8A3
:104CA000004109E0047804F01F050124AC401C4DCC
:104CB0000678761145F8264070BD1A4A0A4002432C
:104CC000154B1B1F1A60704739B1134A121D126829
:104CD0000243114B1B1D1A6006E00F4A121D126899
:104CE00082430D4B1B1D1A607047042808D14FF0FA
:104CF000E021096941F004014FF0E022116107E071
:104D00004FF0E021096921F004014FF0E022116128
:104D1000704700000000FA050CED00E000E400E040
:104D200080E100E080FFFF1F10B50446FA4884428E
:104D300008D101214015FFF73BFD00216015FFF769
:104D400037FD17E0F548844208D101210015FFF72F
:104D50002FFD00212015FFF72BFD0BE0F0488442CA
:104D600008D10121C803FFF723FD00214FF40040C3
:104D7000FFF71EFD10BD30B502460020002350682D
:104D8000E84C20400D790C6844EA0524204350602B
:104D90009068E54C2040D1E902542C434D7944EA17
:104DA000450420439060D06A20F470000C7C641E9F
:104DB000E4B2234340EA0350D06230BD00210160D9
:104DC000017141718160C16001210174704721B19D
:104DD000826842F00102826003E0826822F00102F0
:104DE0008260704721B1826842F48072826003E081
:104DF000826822F480728260704710B50023CBB2C3
:104E00001AB144681C43446002E044689C43446017
:104E100010BD816841F008018160704701460020A3
:104E20008A6802F008020AB1012000E00020704701
:104E3000816841F0040181607047014600208A6862
:104E400002F004020AB1012000E00020704721B105
:104E5000826842F4A002826003E0826822F4A00229
:104E600082607047014600208A6802F480020AB11D
:104E7000012000E00020704710B50A460021002301
:104E8000416821F46041531E41EA4331416010BD45
:104E900021B1426842F40062426003E0426822F4B9
:104EA000006242607047F0B504460D4600200021C4
:104EB000092D11DDE068A5F10A0606EB4607072675
:104EC00006FA07F18843A5F10A0606EB460603FA3F
:104ED00006F10843E0600CE0206905EB4507072672
:104EE00006FA07F1884305EB450603FA06F1084385
:104EF0002061072A0FDA606B561E06EB86071F2615
:104F000006FA07F18843561E06EB860605FA06F1F7
:104F10000843606322E00D2A0FDA206BD61F06EBF0
:104F200086071F2606FA07F18843D61F06EB86067A
:104F300005FA06F10843206310E0E06AA2F10D06CD
:104F400006EB86071F2606FA07F18843A2F10D0635
:104F500006EB860605FA06F10843E062F0BD21B1D2
:104F6000826842F48012826003E0826822F4801238
:104F7000826070470146C86C80B2704766484C300A
:104F80000068704721B1426842F48062426003E0E9
:104F9000426822F480624260704721B1426842F464
:104FA0008052426003E0426822F4805242607047BF
:104FB0000A460021816821F4E04111438160704775
:104FC00021B1826842F40042826003E0826822F4E8
:104FD00000428260704721B1826842F4021282600E
:104FE00003E0826822F402128260704701460020CA
:104FF0008A6802F400120AB1012000E00020704724
:10500000F0B504461546002000220026092911DDCE
:10501000E068A1F10A0707EB470C072707FA0CF233
:105020009043A1F10A0707EB470703FA07F2104381
:10503000E0600CE0206901EB410C072707FA0CF255
:10504000904301EB410703FA07F210432061A06B84
:10505000C0F30156EF1C06F1010CA7EB0C0707EBA0
:10506000870C1F2707FA0CF29043EF1C06F1010C86
:10507000A7EB0C0707EB870701FA07F21043A063C1
:10508000F0BD10B50A4600210023816B21F44011C8
:10509000531E41EA0351816310BD08B500230093FC
:1050A0000090009B0B440093009B1A6008BD08B55C
:1050B000024600200090009201F12800009B184455
:1050C00000900098006880B208BD0A46002141683F
:1050D000164B19401143416070474162826270472C
:1050E0000A460021416821F01F01114341607047C9
:1050F00040B109490831096841F40001064A083203
:10510000116007E004490831096821F40001024AEE
:10511000083211607047000000240140002801405F
:10512000003C0140FFFEF0FFFDF7F1FFFFFD3FFFF8
:105130000246002013680B400BB1012000E0002064
:105140007047CA430260704770B5024600200023D2
:1051500000240B125568CEB205EA060415681D40FE
:1051600015B10CB1012000E0002070BD00220A1230
:10517000D3430360704700002DE9F04F4FF0000C5F
:105180004FF0000301EB1C6EBEF90250BEF9004067
:105190000EF5807EBEF90290BEF900800EF5807E8D
:1051A000BEF90270BEF900600EF5807EBEF902B055
:1051B000BEF900A00EF5807ED044D944A8EB4A0A7F
:1051C000A9EB4B0B4FEAA4044FEAA50504EBA60498
:1051D00005EBA705A4EB6606A5EB670704EBA8049F
:1051E00005EBA905A4EB6808A5EB690906EBAB067E
:1051F000A7EBAA07A6EB6B0B07EB6A0A458020F822
:10520000044B478020F8046BA0F8029020F8048B30
:10521000A0F802A020F804BB03F1010393FAA3FC59
:10522000402BAFD1A0EB82014FF0100312090FF217
:10523000361000F1000006B403EB430C6144A2F504
:10524000803202EB8332B1F90250B1F90040A1EB98
:105250000301B0F902B0B0F900A000F10400A5EB21
:10526000040E0EFB0BFC0AEB4B0E05FB0ACB04FBFA
:105270000ECAB1F90250B1F90040A1EB0301B0F937
:105280000290B0F9008000F10400A5EB040E0EFBC3
:1052900009FC08EB490E05FB08C904FB0EC8B1F96F
:1052A0000250B1F90040A1EB0301B0F90270B0F96E
:1052B000006000F10400A5EB040E0EFB07FC06EBFA
:1052C000470E05FB06C704FB0EC6B1F90250B1F943
:1052D000004001F10001D044D944A8EB4A0AA9EBEF
:1052E0004B0B4FEAA4044FEAA50504EB264405EB5B
:1052F0002745A4EBE636A5EBE73704EB284405EB9E
:105300002945A4EBE838A5EBE93906EB2B46A7EBDA
:105310002A47A6EBEB3B07EBEA3A4D800C80194499
:105320004F800E801944A1F80290A1F80080194422
:10533000A1F802A021F804BBB2F5803283DA03EBB6
:10534000430C6144A2F101025FEA024E18BFA0EBD8
:105350000C007FF476AF06BC4FEA830392087FF41B
:105360006AAFBDE8F08F0040000000400000004040
:1053700000005DDD213BA3227E180000412D7EA5AB
:10538000412D0000412D00C000405DDD82E75DDD64
:10539000213B7EA5412D0040000000400000004060
:1053A0000000AA2A94126B39460649327C0CA811D7
:1053B0008E2349327C0CA3227E1821F77931AA2A48
:1053C0009412A8118E235DDD213BA3227E180000DC
:1053D000412D95C6B13F461A2B1E58EE3735BEB447
:1053E000C53EA8118E235DDD213B63A97138DF081E
:1053F0009A28B7CDC53E7EA5412D0000412D00C0A5
:10540000004063A92B1E21F77931BEB4C53EBEB45E
:105410007C0C58EE373561AC213B95C6BAF9BAE53C
:1054200071383BA737355DDD82E75DDD213B7EA529
:10543000412D21F766D756D53F3D3BA78E23A811B6
:10544000C9CAB7CDC53E61AC7E18AA2AC1C295C6ED
:10545000B13FBEB47C0C00400000004000000040A2
:1054600000001E3BB504693E9201C83C2403EB35A5
:105470006409C83C24036B3946066C30060E1E3B9B
:10548000B504EB356409AA2A94126B3946064932F1
:105490007C0CAE240917AF37D607882E8D0F7E1EE1
:1054A0005D1BEB356409AA2A941224188C1F1E3444
:1054B000F10AB3269015A8118E2349327C0CA32241
:1054C0007E18140B60276C30060E7E1E5D1B710467
:1054D000FB2A882E8D0F461A2B1EC7FD5A2E9D2C97
:1054E0001211FE15E72021F77931AA2A9412A8118A
:1054F0008E2387F05334B2281314480D202602EA75
:10550000E536B3269015DF089A289CE32B39AE24A4
:1055100009177104FB2A5DDD213BA3227E180000E0
:10552000412D4ED7C53C9320EF198FFB6C2F78D1BE
:10553000153E7E1E5D1B21F77931E2CB0F3F641CC7
:10554000C61CB8F2683395C6B13F461A2B1E58EEFA
:10555000373597C1FB3F24188C1F02EAE536F0BCB3
:10556000EC3FFE15E720BAE57138A6B8853FD513A4
:105570003D2282E1DB39BEB4C53EA8118E235DDD3C
:10558000213B40B1AF3D790FDA244DD9423C2EAEDC
:10559000423C480D202656D53F3D8EAB823A140B37
:1055A000602778D1153E63A97138DF089A28B7CDF6
:1055B000C53EB1A71236A906CE2915CA4F3F78A617
:1055C00068337104FB2A95C6B13FBCA57630390219
:1055D000212C38C3EC3F7EA5412D0000412D00C099
:1055E0000040BCA5CE29C7FD5A2EF0BCEC3F78A6E2
:1055F00020268FFB6C2F09BAB13FB1A73D2257F986
:1056000076304DB74F3F63A92B1E21F77931BEB4D9
:10561000C53E8EABEF19ECF474325EB2153E2EAE81
:105620009015B8F268332DB03F3D40B1121187F0AC
:1056300053342EAE423CBEB47C0C58EE373561ACD0
:10564000213BA6B8D6072BEC1236C8AADB39F0BC32
:10565000240302EAE53663A9713897C16EFEDCE7E0
:10566000B03734A8E53695C6BAF9BAE571383BA724
:105670003735E2CB0FF59CE32B3978A6683378D128
:1056800073F082E1DB39EDA579314ED7EDEB6DDFBB
:10569000823A99A56C2F5DDD82E75DDD213B7EA519
:1056A000412D9CE33AE352DBB63B99A5FB2A02EA83
:1056B00019DF4DD9423CEDA59A2887F026DB4ED75D
:1056C000C53C78A6202621F766D756D53F3D3BA797
:1056D0008E23C7FDDFD363D3AF3D34A8E720710429
:1056E00094D078D1153E63A92B1E140B8CCD94CF8A
:1056F000723EC8AA5D1BA811C9CAB7CDC53E61AC30
:105700007E18241850C8E2CB0F3F2EAE90157E1E97
:1057100025C615CA4F3F2DB09412AE244AC451C8B5
:10572000853F5EB28D0FAA2AC1C295C6B13FBEB4F5
:105730007C0C6C308EC1E2C4D43F4DB76409EB35AC
:10574000B1C038C3EC3F09BA46061E3B2CC097C116
:10575000FB3FF0BC240370470FB4044910B503AA03
:10576000029800F0FFF810BC5DF814FB2000002048
:105770002DE9F0410E460446002020622046E168F3
:10578000884730B3252805D0D4E901219047206A05
:10579000401CF2E7E168204600278847050018D042
:1057A000A5F14100192802D820354FF40067324690
:1057B000294620462760FAF7F5FC40B1012804D0BD
:1057C000F61D26F007060836D8E7361DD6E7284628
:1057D000DAE7206ABDE8F08170B504460D4621463F
:1057E0001068AFF300802188090502D50F4A7A447A
:1057F00002E00E4A7A440E32002104F1240305E04F
:1058000000F00F060009965D5E54491C0028F7D190
:1058100020780023000704D5702D02D009B102239F
:1058200011322046BDE8704000F043B86E280000F9
:1058300010B5203AC0F00B80B1E81850203AA0E82B
:105840001850B1E81850A0E81850BFF4F5AF5FEA5F
:10585000027C24BFB1E81850A0E8185044BF18C912
:1058600018C0BDE810405FEA827C24BF51F8043BB9
:1058700040F8043B08BF7047D20728BF31F8023B0D
:1058800048BF11F8012B28BF20F8023B48BF00F8A1
:10589000012B7047704770477047704710B500F094
:1058A00073F8006810BD10B5044600F06DF8046090
:1058B00010BD2DE9F0470D4699469246044600F189
:1058C00024080168880604D5E06921F010012160F0
:1058D00000E00120A84201DD471B00E00027A1698C
:1058E0007A1902EB0900081AA0612078C00602D4D8
:1058F0002046AFF30080002608E0D4E901211AF821
:1059000006009047206A401C761C20624E45F4DB5E
:105910002078C0060AD52046AFF3008006E0D4E91F
:10592000012130209047206A401C2062381EA7F1D8
:105930000107F4DC07E0D4E9012118F805009047DD
:10594000206A401C2062281EA5F10105F3DC2046D8
:10595000AFF300802078000602D50220BDE8F08772
:105960000120FBE7074B70B50D467B4400F015F8AE
:105970000446284600F024F810B14FF0FF3070BD07
:10598000204670BD5BE6FFFF00487047C411002051
:1059900001694A1C02610878704700B58FB0CDE9F3
:1059A00001310021059105497944CDE903101146E3
:1059B0006846FFF7DDFE0FB000BD0000E5FFFFFF0A
:1059C000007B00F08000704700487047C411002041
:1059D0007546FFF7F9FFAE4605006946534620F0CD
:1059E0000700854618B020B5FEF79AFBBDE82040B9
:1059F0004FF000064FF000074FF000084FF0000B8B
:105A000021F00701AC46ACE8C009ACE8C009ACE83D
:105A1000C009ACE8C0098D46704710B50446AFF325
:105A200000802046BDE81040FAF7CEBB2DE9F041DA
:105A300006460F4600F0E8FA041E0D4618BF012086
:105A4000284320F00040C0F17F6000F1E040C00F2B
:105A50000ED0301C18BF0120384320F00040C0F1A8
:105A60007F6000F1E040C00F04BF0120FFF71BFF83
:105A700020462946BDE8F08121F00042A2F16052A3
:105A8000B2F5801F01F0004328BFD2F17F6C0BD923
:105A90005FEA001C43EAC20242EB507018BF704735
:105AA00028BF20F001007047B2F5801FBCBF184628
:105AB00070474FEA410C1CF5001F02D2084600F067
:105AC0002CBE70B500F04CFA00000089FFF7F6BF5D
:105AD0004FF00040A0F58000704700002DE9C04164
