:020000040800F2
:10000000803B002015680008C1060008C3060008F0
:10001000C7060008CB060008CF0600080000000055
:10002000000000000000000000000000D3060008EF
:10003000D506000800000000D7060008D906000811
:100040002F6800082F6800082F6800082F68000834
:100050002F6800082F6800082F6800082F68000824
:100060002F6800082F6800082F6800082F68000814
:100070002F6800082F6800082F6800082F68000804
:100080002F6800082F6800082F6800082F680008F4
:100090002F6800082F6800082F6800082F680008E4
:1000A0002F6800082F6800082F6800082F680008D4
:1000B0002F6800082F6800082F6800082F680008C4
:1000C0002F6800082F6800082F6800082F680008B4
:1000D0002F680008896700082F6800082F6800084B
:1000E0002F6800082F6800082F6800082F68000894
:1000F0002F6800082F6800082F6800082F68000884
:100100002F6800082F6800082F6800082F68000873
:100110002F6800082F6800082F6800082F68000863
:100120002F6800082F6800082F6800082F68000853
:1001300000F002F800F03FF80AA090E8000C8244BA
:100140008344AAF10107DA4501D100F034F8AFF297
:10015000090EBAE80F0013F0010F18BFFB1A43F0A5
:1001600001031847CCA40000ECA40000103A24BFFF
:1001700078C878C1FAD8520724BF30C830C144BF0C
:1001800004680C607047000000230024002500264E
:10019000103A28BF78C1FBD8520728BF30C148BFEA
:1001A0000B607047782907F09F86002070471FB5C5
:1001B0001FBD10B510BD07F061FF1146FFF7F7FF37
:1001C00000F008F807F07FFF03B4FFF7F2FF03BC6D
:1001D00006F080FA86B00024002500260020059055
:1001E000F94A07CA02AB07C306F00AFA4FF41650E1
:1001F00006F07EFA00F0D2FB01F06DFF06F008F980
:10020000002001F02BFF012001F02FFC4FF4FC60D7
:10021000EE4908800020EE4908804BE2002412E0FD
:10022000002006F0BCF9EB4941F82400012006F05B
:10023000C3F9E94941F82400022006F0CAF9E74968
:1002400041F82400641CB4F5807FE9DD012487E0D7
:10025000E04A611C52F8210008F09AFC8246049999
:1002600008F0AAFC8046DB4951F8240008F090FC15
:100270000190039908F0A0FC8246611ED54A52F80D
:10028000210008F085FC0190029908F095FC834656
:10029000514608F021FB8146414608F01DFB074608
:1002A00008F03EFCCE4941F82400CB4A611C52F8CC
:1002B000210008F06DFC8246049908F07DFC804620
:1002C000C54951F8240008F063FC0190039908F037
:1002D00073FC8246611EC04A52F8210008F058FCA7
:1002E0000190029908F068FC8346514608F0F4FA40
:1002F0008146414608F0F0FA074608F011FCB9497A
:1003000041F82400B54A611C52F8210008F040FC75
:100310008246049908F050FC8046B04951F8240008
:1003200008F036FC0190039908F046FC8246611EF5
:10033000AA4A52F8210008F02BFC0190029908F01B
:100340003BFC8346514608F0C7FA8146414608F017
:10035000C3FA074608F0E4FBA34941F82400641CF3
:10036000FF2C7FF775AF002412E09A49601C51F80A
:10037000200041F824009849601C51F8200041F801
:1003800024009649601C51F8200041F82400641CA8
:10039000FF2CEADD002412E09149601C51F8200096
:1003A00041F824008F49601C51F8200041F82400D6
:1003B0008D49601C51F8200041F82400641CFF2C7A
:1003C000EADB002006F0EBF88249C1F800040120C6
:1003D00006F0F2F88049C1F80004022006F0F9F8AE
:1003E0007E49C1F800047B49D1F8000408F0D0FB35
:1003F0008246049908F0E0FB80467649D1F8FC0378
:1004000008F0C6FB0190039908F0D6FB82467149BB
:10041000D1F8F80308F0BCFB0190029908F0CCFB7E
:100420008346514608F058FA8146414608F054FA8E
:10043000074608F075FB6A49C1F8FC036649D1F824
:10044000000408F0A5FB8246049908F0B5FB80463D
:100450006149D1F8FC0308F09BFB0190039908F077
:10046000ABFB82465C49D1F8F80308F091FB0190A0
:10047000029908F0A1FB8346514608F02DFA814607
:10048000414608F029FA074608F04AFB5549C1F8E9
:10049000FC035249D1F8000408F07AFB8246049923
:1004A00008F08AFB80464D49D1F8FC0308F070FB48
:1004B0000190039908F080FB82464849D1F8F8037F
:1004C00008F066FB0190029908F076FB83465146DE
:1004D00008F002FA8146414608F0FEF9074608F0A6
:1004E0001FFB4149C1F8FC0300201021CDE9001099
:1004F0003B4804231421D0F8FC23980105F019FE91
:100500004FF480723649394807F0BEF94FF48072D3
:100510003449374807F0B8F94FF48072324935480A
:1005200007F0B2F900240FE0304830F824003049D9
:1005300031F8241008442F4931F8241008440004ED
:100540002D4941F82400641CFF2CEDDD00F0B6F9C4
:100550002A480068059001240FE0284850F824102C
:10056000601E264A52F82000814204D9104650F8F5
:100570002400059000E000BF641CFF2CEDDD00208E
:1005800010210423CDE9001028219801059A05F0D7
:10059000D0FD002414E0194850F824006421484399
:1005A0004FF4FA71B0FBF1F0154941F82400084608
:1005B00050F82400C82802D9C82041F82400641C3F
:1005C000FF2CE8DD01245AE03C8E000814000020D6
:1005D00016000020380000203C04002040080020C5
:1005E000440C002044100020441400204418002033
:1005F000441C002044200020442C002044300020D3
:10060000442800202C4850F824002C4951F824108C
:10061000884215D9294850F824500BE0C5F1DC0276
:1006200091B204EB44025204100C4FF4FC6201F04E
:1006300003F86D1C204850F82400A842EED81DE0B5
:100640001D4850F824001D4951F82410884214D246
:10065000194850F824500AE0C5F1DC0291B204EBCD
:1006600044025204100C002200F0E6FF6D1C1348F7
:1006700050F82400A842EFD800E000BF641C282CEA
:10068000C0DB002406E00C4850F824000B4941F878
:100690002400641CFF2CF6DD761C002010210423AE
:1006A0003246CDE900100146980105F042FD4B208D
:1006B00005F0E3FFB2E500004428002044240020B8
:1006C000704700BFFEE700BFFEE700BFFEE700BFC8
:1006D000FEE7704770477047704700000CB5002078
:1006E000019000906C48006840F480306A490860CE
:1006F00000BF6948006800F4003000900198401C79
:100700000190009818B90198B0F5A06FF1D1624836
:10071000006800F4003010B10120009001E00020DA
:1007200000900098012843D15C48006840F0100018
:100730005A4908600846006820F00300086008462F
:10074000006840F002000860534840685249486021
:100750000846406848600846406840F48060486049
:100760000846406820F47C1048600846406840F421
:10077000E81048600846006840F08070086000BFDC
:100780004548006800F000700028F9D042484068F1
:1007900020F00300404948600846406840F00200ED
:1007A000486000BF3C48406800F00C000828F9D1C0
:1007B0000CBD10B5FFF792FF10BD10B536480068AC
:1007C00040F0010034490860084640683449084058
:1007D0003149486008460068324908402E4908609F
:1007E0000846006820F4802008600846406820F42D
:1007F000FE0048604FF41F008860FFF7DAFF4FF0FB
:1008000000602949086010BD10B5002100200022B9
:10081000214B5B6803F00C0121B1042906D00829A3
:1008200028D107E0214B224C236027E01F4B204CAE
:10083000236023E0184B5B6803F47010164B5B6871
:1008400003F48032022303EB904022B9194B434357
:10085000174C23600DE0104B5B6803F4003323B1A9
:10086000144B4343124C236003E0104B4343104CA2
:10087000236003E00D4B0E4C236000BF00BF064B0E
:100880005B68C3F303130C4CE15C094B1B68CB4062
:10089000074C236010BD0000001002400020024001
:1008A0000000FFF8FFFFF6FE08ED00E000127A00FE
:1008B0000000002000093D00040000202DE9F04F59
:1008C00089B000245EE0324830F824000FFA80F945
:1008D0002F4850F82400000C0FFA80FA484608F020
:1008E0003FF980464FF0874108F066F907464FF020
:1008F0008E4108F053F80546504608F031F980461D
:100900004FF0874108F058F907464FF08E4108F044
:1009100045F806463146304608F04EF92946029021
:10092000284608F049F90190029907F0D5FF039095
:1009300007F0A6FFCDE9040107F0CEFB0022154B1E
:10094000CDE9060107F020FC074607F0EBFB8346E4
:100950005CB94FF08E41584608F02EF9074608F072
:10096000DFF80D4941F824000AE04FF08F41584666
:1009700008F022F9074608F0D3F8074941F82400A7
:10098000601C84B2802C9EDB09B0BDE8F08F0000B3
:10099000442C0020000070404430002008B50121A4
:1009A000242006F073FA4FF48070ADF80000102098
:1009B0008DF8030003208DF802006946094805F010
:1009C000A9FF4FF48071074806F051F80420ADF8F4
:1009D00000006946044805F09DFF0421024806F026
:1009E00046F808BD00080140001401404FF4807132
:1009F000FE4A516149005161FD4908608021516101
:100A000011618900116170474FF48071F74A1161DB
:100A100049005161F64908608021516111618900E6
:100A20001161704710B504462146F04806F028F8D9
:100A30008021EF480C3806F01CF88021EC480C3877
:100A400006F015F810BD10B54FF08830E8490C39A4
:100A50000860091D08600020E54908608815E34921
:100A600008614000486140204861E248808848F6BB
:100A70008911884202D1022005F0DBFDDC48001F0D
:100A8000006884B24020D9490861C00008614FF075
:100A90003330D7490C390860091D08604FF6FF70E4
:100AA000D3490860204610BD10B504460B462046C9
:100AB000FFF79CFF4FF48070CC490861400048610B
:100AC000CB4803608020486108618000086110BD48
:100AD00010B504462046FFF789FFFFF7B4FF10BDAD
:100AE00000B5C4490889FFF781FF00BD4FF480714C
:100AF000BE4A116149005161BD49086080215161C0
:100B0000116189001161704730B5014601F01F0481
:100B1000C1F34513CA0AE50205EB43151544A8B213
:100B200030BD00BF011EA0F10102D0B2FAD1704762
:100B300030B504460D46AF48808849F241318842BD
:100B400005D0AC48808845F21031884240D1A9498F
:100B50004889FFF74BFF4FF48070A44908614000BB
:100B600048612012A24908608020A04948610861BC
:100B7000800008614010086140004861E0B29C4973
:100B8000086080209949486108618000086199499E
:100B90008889FFF72BFF4FF480709449086140006B
:100BA0004861281292490860802090494861086194
:100BB000800008614010086140004861E8B28C493B
:100BC00008608020894948610861800008618DE1E2
:100BD0008848808846F60401884249D18548807952
:100BE000012804D183480088401E001B84B281493B
:100BF0004889FFF7FBFE4FF480707C490861400094
:100C0000486120127A49086080207849486108616B
:100C1000800008614010086140004861E0B27449FA
:100C2000086080207149486108618000086171494D
:100C30008889FFF7DBFE4FF480706C490861400043
:100C4000486128126A490860802068494861086143
:100C5000800008614010086140004861E8B26449C2
:100C600008608020614948610861800008613DE1B9
:100C70006048808841F6631188427DD15D48807963
:100C800000283FD15B480088401E001B84B25949B0
:100C90004889FFF7ABFE4FF480705449086140006B
:100CA000486100205249086080205049486108612D
:100CB00080000861401008614000486100204C49F4
:100CC000086080204949486108618000086140103F
:100CD000086140004861201245490860802043496E
:100CE0004861086180000861401008614000486167
:100CF000E0B23F49086080203C49486108618000BB
:100D0000086141E03B494889FFF770FE4FF480706D
:100D1000364908614000486120123549086080204A
:100D20003249486108618000086140100861400054
:100D30004861E0B22E49086080202C494861086172
:100D4000800008614010086140004861294800881F
:100D5000401E00122649086080202449486108612D
:100D60008000086140100861400048612148007817
:100D7000401EC0B21E4900E04EE0086080201B49C2
:100D800048610861800008611A498889FFF72EFED2
:100D90004FF48070154908614000486128121449D9
:100DA0000860802011494861086180000861401096
:100DB000086140004861E8B20D49086080200B4995
:100DC0004861086180000861401008614000486186
:100DD00008484088401E00120549086080200349E9
:100DE0004861086180000861401005E00010014082
:100DF0000C0C014044340020086140004861FB486D
:100E00008078401EC0B2FA4908608020F9494861E4
:100E100008618000086169E0F448808845F210515B
:100E2000884250D1F1494889FFF7E0FD4FF48070C6
:100E3000F0490861400048612012ED4908608020B7
:100E4000EC494861086180000861E8494989491C0A
:100E500088B2FFF7CBFD4FF48070E649086140008F
:100E60004861E0B2E24908608020E24948610861D7
:100E700080000861DD498889FFF7B8FD4FF4807074
:100E8000DC490861400048612812D9490860802087
:100E9000D8494861086180000861D4498989491CA2
:100EA00088B2FFF7A3FD4FF48070D249086140007B
:100EB0004861E8B2CE4908608020CE4948610861A7
:100EC0008000086112E0C9488079012804D1C74830
:100ED0000088401E001B84B2C44948892146FFF7A0
:100EE000E3FDC24988892946FFF7DEFD30BD2DE9C3
:100EF000F04105460E46BD480088A84203DDBB48C8
:100F00004088B04202DC0020BDE8F081314628462E
:100F1000FFF70EFEB548808849F24131884211D072
:100F2000B248808846F6040188420BD0AF488088DA
:100F300045F21031884205D0AC48808841F66311F3
:100F4000884203D12E20FFF751FD0DE0A74880888D
:100F500045F21051884204D14FF43850FFF746FD56
:100F600002E02220FFF742FD4FF08830A0490C3903
:100F70000860091D08604FF6FF709D4908608815DC
:100F80009C49086140004861402048610220FFF709
:100F9000C8FD9748001F006884B240209549086149
:100FA0009248808841F66311884210D14FF4007056
:100FB000904908614FF033308D490C390860091DA4
:100FC00008604FF6FF708A49086020469CE7402081
:100FD000884948610220FFF7A4FD8548001F00688A
:100FE00084B24020834908618048808849F24131B9
:100FF00088420BD07D48808845F21031884205D068
:101000007A48808845F21051884213D140207949AE
:1010100048610220FFF785FD7548001F00681FFA30
:1010200080F8402073490861E7B24FF6FF7000EA8C
:1010300007270DE06D48808846F60401884207D1F5
:1010400040206C49486108616948001F006884B20B
:101050004FF40070674908614FF0333064490C3930
:101060000860091D08604FF6FF70614908605F481D
:10107000808849F22531884216D05C48808844F245
:101080003551884210D059488088091F88420BD0BA
:101090005648808848F68911884205D05348808890
:1010A0004BF20551884201D120462DE74F488088F8
:1010B00049F2413188420BD04C48808845F21031CA
:1010C000884205D04948808845F21051884207D1AE
:1010D000E012C002B91240EA411040EAE82013E7EA
:1010E0002046FFF711FD0FE700B54048808849F220
:1010F0004131884211D03D48808846F6040188423B
:101100000BD03A48808845F21031884205D03748E4
:10111000808841F66311884203D12920FFF766FCDD
:101120000FE03248808845F21051884204D14FF4D4
:101130002450FFF75BFC04E040F273110720FFF737
:10114000B3FC00BD00B52948808849F2413188428E
:1011500011D02648808846F6040188420BD02348E7
:10116000808845F21031884205D02048808841F6B9
:101170006311884203D12820FFF738FC0EE01B489A
:10118000808845F21051884204D14FF42050FFF777
:101190002DFC03E000210720FFF786FC00BDF0B521
:1011A0000546002400271148807901280BD10F48FB
:1011B000808846F60401884205D00C48808841F6B4
:1011C0006311884208D10948807920BB074880888C
:1011D00041F6631188421ED1082D1BD2DFE805F0CD
:1011E000040C0E1012141618062513E044340020C7
:1011F0000C0C01400010014007250BE0042509E01C
:10120000052507E0012505E0002503E0032501E0B1
:10121000022500BF00BFF848808849F2413188426A
:1012200017D0F548808846F60401884211D0F2486C
:10123000808845F2103188420BD0EF48808845F213
:101240001051884205D0EC48808841F663118842ED
:101250007ED1082D1CD2DFE805F00406090C0F1220
:10126000151800BF14E044F0800411E044F040047D
:101270000EE044F0C0040BE044F0200408E044F029
:10128000600405E044F0A00402E044F0E00400BF84
:1012900000BFD948808845F21051884202D14FF4EE
:1012A000585700E03627D448808845F210318842EC
:1012B0000DD0D148808845F21051884207D0CE48E1
:1012C000808841F66311884201D044F00804CA487E
:1012D000808846F60401884201D144F00204214688
:1012E0003846FFF7E1FBC448808841F66311884225
:1012F0001DD004F0200068B1BF480088BE4949886D
:10130000884214DABC4806884088BB4908800846F1
:1013100046800CE0B8480088B7494988884206DD15
:10132000B54806884088B449088008464680B248D7
:10133000808845F2105188427ED1AF494889FFF735
:1013400055FB4FF48070AD4908614000486100E0F2
:1013500029E10020AA4908608020A8494861086165
:1013600080000861A4494989491C88B2FFF73EFB07
:101370004FF48070A1490861400048610020A049F5
:10138000086080209D4948610861800008619A4991
:101390004989891C88B2FFF729FB4FF4807097496F
:1013A00008614000486194480088401E001294493A
:1013B00008608020914948610861800008618E4979
:1013C0004989C91C88B2FFF711FB4FF480708B4923
:1013D00008614000486188480078401EC0B28849D2
:1013E0000860802085494861086180000861824961
:1013F0008889FFF7FBFA4FF480708049086140004C
:10140000486100207E49086080207C49486108616D
:101410008000086178498989491C88B2FFF7E6FA9B
:101420004FF480707549086140004861002074499C
:1014300008608020714900E034E048610861800064
:1014400008616D498989891C88B2FFF7CFFA4FF48A
:1014500080706A4908614000486167484088401EC2
:101460000012674908608020644948610861800073
:10147000086161498989C91C88B2FFF7B7FA4FF43E
:1014800080705E490861400048615B488078401E7A
:10149000C0B25B49086080205849486108618000FB
:1014A0000861A7E054494889FFF7A0FA4FF480701B
:1014B000524908614000486100205149086080207D
:1014C0004E49486108618000086140100861400091
:1014D000486100204A490860802048494861086105
:1014E000800008614010086140004861424800885F
:1014F000401E00124249086080204049486108614E
:101500008000086140100861400048613A48007856
:10151000401EC0B23A4908608020384948610861DD
:101520008000086134498889FFF760FA4FF48070C1
:10153000324908614000486100203149086080203C
:101540002E49486108618000086140100861400030
:10155000486100202A4908608020284948610861C4
:1015600080000861401008614000486122484088BE
:10157000401E00122249086080202049486108610D
:101580008000086140100861400048611A48807876
:10159000401EC0B21A49086080201849486108619D
:1015A0008000086126E0082D1CD2DFE805F0040762
:1015B0000A0D0F12151844F0300413E044F0100423
:1015C00010E044F020040DE000BF0BE044F03804CC
:1015D00008E044F0280405E044F0180402E044F078
:1015E000080400BF00BF032744F480542146384656
:1015F000FFF75AFAF0BD000044340020001001400B
:101600000C0C014030B504460D4629462046FFF734
:101610008FFAFFF765FA4FF48070FE4908614000C9
:101620004861FD480088FD4908608020F94948610B
:1016300008618000086130BD70B504460D4616464D
:10164000F748808849F24131884205D0F4488088C3
:1016500045F21031884240D1F1494889FFF7C6F977
:101660004FF48070EB490861400048612012EB495B
:1016700008608020E74948610861800008614010E7
:10168000086140004861E0B2E44908608020E14917
:101690004861086180000861E1498889FFF7A6F97F
:1016A0004FF48070DB490861400048612812DB4933
:1016B00008608020D74948610861800008614010B7
:1016C000086140004861E8B2D44908608020D149EF
:1016D00048610861800008613DE1D148808845F299
:1016E0001051884250D1CE494889FFF77FF94FF415
:1016F0008070C8490861400048612012C7490860ED
:101700008020C4494861086180000861C449498952
:10171000491C88B2FFF76AF94FF48070BD4908612F
:1017200040004861E0B2BD4908608020B949486185
:10173000086180000861BA498889FFF757F94FF4BA
:101740008070B4490861400048612812B3490860BC
:101750008020B0494861086180000861B0498989EA
:10176000491C88B2FFF742F94FF48070A94908611B
:1017700040004861E8B2A94908608020A549486155
:10178000086180000861E6E0A548808841F66311A1
:1017900088427DD1A248807920B9A1480088401EA6
:1017A000001B84B29E494889FFF720F94FF48070EE
:1017B00098490861400048612012984908608020DB
:1017C0009449486108618000086140100861400048
:1017D0004861E0B29149086080208E494861086103
:1017E00080000861401008614000486120128B4968
:1017F00008608020874948610861800008614010C6
:10180000086140004861E0B2844908608020814955
:10181000486108618000086181498889FFF7E6F81E
:101820004FF480707B4908614000486128127B4971
:101830000860802077494861086180000861401095
:10184000086140004861E8B274490860802071492D
:1018500048610861800008614010086140004861EB
:1018600028126E49086080206A494861086180003A
:1018700008614010086140004861E8B267490860AB
:1018800080206449486108618000086163E0FFE7E7
:101890006348808846F60401884249D160488079CF
:1018A000012804D15E480088401E001B84B25C49B8
:1018B0004889FFF79BF84FF4807056490861400053
:1018C00048612012554908608020524948610861EA
:1018D000800008614010086140004861E0B24F4953
:1018E000086080204B4948610861800008614C49CC
:1018F0008889FFF77BF84FF4807046490861400003
:1019000048612812454908608020424948610861C1
:10191000800008614010086140004861E8B23F491A
:10192000086080203B49486108618000086112E03E
:101930003B488079012804D139480088401E001BAB
:1019400084B2374948892146FFF7AEF8344988897F
:101950002946FFF7A9F84FF480702E4948614000EE
:1019600048612F4800892D49086080202949486135
:101970000861800008614010086140004861274804
:1019800006608020486108618000086170BD2DE913
:10199000F0410446BE20FFF729F84FF480701D493E
:1019A00008614000486105201C49086080201949F1
:1019B000486108618000086140100861400048618A
:1019C000204606F066FD05464FF06632154B06F0E0
:1019D00073FD074606F030FD1049086080200D4970
:1019E000486108618000086140100861400048615A
:1019F00001200A490860802006494861086180008A
:101A000008614010086140004861FF2003490860F8
:101A1000802009E000100140140000200C0C01405F
:101A20004434002066660440FE4948610861800035
:101A3000086140100861400048610020FA490860D0
:101A40008020F84948610861800008614010086101
:101A5000400048610020F44908608020F149486155
:101A6000086180000861BDE8F08110B50446002CD3
:101A700066D1EE498871F02008804FF4A07048804C
:101A80000846808849F2413188420BD0E748808877
:101A900046F60401884205D0E448808845F21031BA
:101AA00088421AD12C20E14908812A2048812B2024
:101AB00088810846808846F60401884205D0DB48C4
:101AC000808845F21031884206D14FF4A070D74982
:101AD00008804FF4F0704880A1E0D448808845F237
:101AE0001051884210D14FF43050D04908814FF442
:101AF000285048814FF42C5088814FF4F0700880B2
:101B00004FF4487048808AE0C848808841F66311E5
:101B100088420DD12C20C54908812B2048812A20DC
:101B200088814FF4F07008804FF44870488076E068
:101B30002220BE49088120204881212088816EE032
:101B40000120BA4988714FF4A0700880F0204880C5
:101B50000846808849F24131884205D0B3488088E0
:101B600045F21031884207D12C20B04908812A2043
:101B700048812B2088813FE0AC48808846F60401EC
:101B8000884207D12C20A94908812B2048812A208E
:101B9000888131E0A548808845F21051884210D1F3
:101BA0004FF43050A14908814FF4285048814FF438
:101BB0002C5088814FF4487008804FF4F0704880B2
:101BC0001AE09A48808841F6631188420DD12C2092
:101BD000964908812A2048812B2088814FF448703B
:101BE00008804FF4F070488006E022208F49088179
:101BF00021204881202088818C48808846F6040175
:101C0000884205D08948808845F21031884206D143
:101C10004FF4F070854908804FF4A0704880002090
:101C2000FFF7BDFA10BD2DE9F04F86B004460D4612
:101C30009046994604EB0800401E86B205EB090069
:101C4000401E87B27948808849F24131884215D0D8
:101C50007648808845F2103188420FD073488088DA
:101C600046F60401884209D07048807901287BD16A
:101C70006E48808841F66311884275D16B49488966
:101C8000FEF7B4FE4FF48070664908614000486179
:101C9000201265490860802062494861086180001F
:101CA00008614010086140004861E0B25E49086088
:101CB00080205C494861086180000861401008612B
:101CC00040004861301258490860802055494861F9
:101CD0000861800008614010086140004861F0B26E
:101CE0005149086080204F494861086180000861BF
:101CF0004E498889FEF77AFE4FF4807049490861A1
:101D000040004861281248490860802045494861E0
:101D10000861800008614010086140004861E8B235
:101D20004149086080203F4948610861800008619E
:101D3000401008614000486138123B49086080202B
:101D4000384948610861800008614010086140001E
:101D50004861F8B23449086080203249486108611E
:101D60008000086177E1FFE73048808841F6631121
:101D700088427DD12D480088A0EB0800001B84B26A
:101D800005EB0900401E1FFA80F928494889FEF733
:101D90002DFE4FF4807023490861400048612012F5
:101DA0002149086080201F4948610861800008615E
:101DB0004010086140004861E0B21B490860802083
:101DC00018494861086180000861401008614000BE
:101DD000486104EB0800401E00121349086080208F
:101DE00010494861086180000861401008614000A6
:101DF000486104EB0800401EC0B20B490860802017
:101E00000849486108618000086108498889FEF72F
:101E1000EDFD4FF4807003490861400048612812CD
:101E2000014905E0001001400C0C01404434002041
:101E300008608020FE494861086180000861401008
:101E4000086140004861E8B2FA4908608020F8491A
:101E500048610861800008614010086140004861E5
:101E60004FEA2920F34908608020F149486100E0E9
:101E700011E008618000086140100861400048617D
:101E800009F0FF00EB4908608020E94948610861DA
:101E900080000861DFE0E848808845F21051884200
:101EA0007ED1E5494889FEF7A1FD4FF48070E049F5
:101EB0000861400048612012DE4908608020DC494A
:101EC0004861086180000861DB494989491C88B282
:101ED000FEF78CFD4FF48070D549086140004861E1
:101EE000E0B2D44908608020D1494861086180008F
:101EF0000861D1494989891C88B2FEF777FD4FF402
:101F00008070CB490861400048613012C9490860BF
:101F10008020C7494861086180000861C649498935
:101F2000C91C88B2FEF762FD4FF48070C049086199
:101F300040004861F0B2BF4908608020BC49486158
:101F4000086180000861BC498889FEF74FFD4FF4A5
:101F50008070B7490861400048612812B54908609F
:101F60008020B3494861086180000861B2498989CD
:101F7000491C88B2FEF73AFD4FF48070AC49086105
:101F800040004861E8B2AB4908608020A849486138
:101F9000086180000861A8498989891C88B200E02D
:101FA00026E0FEF723FD4FF48070A1490861400050
:101FB000486138129F49086080209D494861086146
:101FC000800008619C498989C91C88B2FEF70EFD12
:101FD0004FF480709649086140004861F8B2954915
:101FE000086080209249486108618000086132E001
:101FF0009148807901280ED1AA46BB468E480088B8
:10200000801B401E80B201908B480088001B401E40
:1020100080B2009003E0A246B3460195009750209D
:102020000590512004905220039053200290514675
:102030000598FEF739FD59460498FEF735FD0199DC
:102040000398FEF731FD00990298FEF72DFD294611
:102050002046FEF76DFD06B0BDE8F08F70B5044672
:10206000002675480588408845437348808846F6B1
:102070000401884216D170488079012812D10020CD
:102080006D4988712A2048812B20888100210846CB
:10209000FEF74EFD0120684988712B2048812A20D7
:1020A000888103E000210846FEF742FDFEF718FD97
:1020B00000260DE04FF480705D49086140004861E2
:1020C0005C48046080204861086180000861761CDB
:1020D000AE42EFD370BD08B50121192004F0D6FE41
:1020E0000121564804F0E7FC4FF4F860ADF8000019
:1020F00010208DF8030003208DF8020069464C483B
:1021000004F008FC4FF4F861494804F0B0FC4FF6C5
:10211000FF70ADF80000694646480C3804F0FAFB41
:102120004FF6FF7143480C3804F0A1FC322004F054
:10213000A4FA01210020FEF7B7FC322004F09DFA3A
:102140000020FEF7C5FC3C49888008468088FF28AF
:102150000ADB084680884FF6FF71884204D0364873
:102160008088B0F5134F62D1D320FEF73FFCFEF715
:102170006AFCFEF768FCFEF766FC2F49888008467B
:1021800080884FF6FF7101EA00202B498880FEF716
:102190005AFC29498988084327498880084680884D
:1021A00049F24131884242D0BF20FEF71FFCFEF7C2
:1021B0004AFCFEF748FCFEF746FCFEF744FC1E49CD
:1021C0008880084680884FF6FF7101EA00201A498E
:1021D0008880FEF738FC18498988084316498880AA
:1021E0000846808846F6040188427CD0D420FEF759
:1021F000FDFBFEF728FCFEF726FCFEF724FC0E494B
:102200008880084680884FF6FF7101EA00200A495D
:102210008880FEF718FC08498988084306498880A9
:102220000846808845F2103188425CD008E05AE0C8
:10223000001001400C0C014044340020000230002A
:102240004FF45A40FEF7D2FBFEF7FDFB4FF45B4024
:10225000FEF7CCFBFEF7F7FBFE4988800846808836
:102260004FF6FF7101EA0020FA4988804FF45C4084
:10227000FEF7BCFBFEF7E7FBF64989880843F54902
:10228000888008468088B0F5004F02D145F2105092
:102290008880F048808845F21051884223D0A120E0
:1022A000FEF7A4FBFEF7CFFBEA498880FEF7CBFBE5
:1022B000E8498880084680884FF6FF7101EA0020CF
:1022C000E4498880FEF7BFFBE24989880843E14979
:1022D00088800846808845F26171884203D141F6C2
:1022E0006310DC498880DB488188DBA005F0BCFDF9
:1022F000D848808849F2413188427CD1CF20FEF70E
:1023000075FB0020FEF780FBC120FEF77DFB30202F
:10231000FEF77AFBED20FEF769FB6420FEF774FB05
:102320000320FEF771FB1220FEF76EFB8120FEF703
:102330006BFBE820FEF75AFB8520FEF765FB1020BB
:10234000FEF762FB7A20FEF75FFBCB20FEF74EFB29
:102350003920FEF759FB2C20FEF756FB0020FEF734
:1023600053FB3420FEF750FB0220FEF74DFBF72015
:10237000FEF73CFB2020FEF747FBEA20FEF736FB8A
:102380000020FEF741FB0020FEF73EFBC020FEF7D9
:102390002DFB1B20FEF738FBC120FEF727FB012099
:1023A000FEF732FBC520FEF721FB3020FEF72CFBA9
:1023B0003020FEF729FBC720FEF718FBB720FEF7F9
:1023C00023FB3620FEF712FB4820FEF71DFB3A20C8
:1023D000FEF70CFB5520FEF717FBB120FEF706FBBE
:1023E0000020FEF711FB1A20FEF70EFBB620FEF7C9
:1023F000FDFA0A2000E099E0FEF706FBA220FEF7B6
:1024000003FBF220FEF7F2FA0020FEF7FDFA262089
:10241000FEF7ECFA0120FEF7F7FAE020FEF7E6FA05
:102420000F20FEF7F1FA2A20FEF7EEFA2820FEF739
:10243000EBFA0820FEF7E8FA0E20FEF7E5FA08208E
:10244000FEF7E2FA5420FEF7DFFAA920FEF7DCFAE5
:102450004320FEF7D9FA0A20FEF7D6FA0F20FEF73E
:10246000D3FA0020FEF7D0FA0020FEF7CDFA0020C4
:10247000FEF7CAFA0020FEF7C7FAE120FEF7B6FA27
:102480000020FEF7C1FA1520FEF7BEFA1720FEF76E
:10249000BBFA0720FEF7B8FA1120FEF7B5FA0620BE
:1024A000FEF7B2FA2B20FEF7AFFA5620FEF7ACFA91
:1024B0003C20FEF7A9FA0520FEF7A6FA1020FEF749
:1024C000A3FA0F20FEF7A0FA3F20FEF79DFA3F2067
:1024D000FEF79AFA0F20FEF797FA2B20FEF786FAFE
:1024E0000020FEF791FA0020FEF78EFA0120FEF799
:1024F0008BFA3F20FEF788FA2A20FEF777FA0020B1
:10250000FEF782FA0020FEF77FFA0020FEF77CFA41
:10251000EF20FEF779FA1120FEF768FA782004F030
:10252000ACF82920FEF762FA03F0A5BB4948808881
:1025300046F6040188427CD11120FEF757FA142098
:1025400004F09BF8D020FEF751FA0720FEF75CFA62
:102550004220FEF759FA1D20FEF756FAD120FEF769
:1025600045FA0020FEF750FA1A20FEF74DFA09202E
:10257000FEF74AFAD220FEF739FA0120FEF744FAB4
:102580002220FEF741FAC020FEF730FA1020FEF7B5
:102590003BFA3B20FEF738FA0020FEF735FA02201E
:1025A000FEF732FA1120FEF72FFAC520FEF71EFAC9
:1025B0000320FEF729FAC820FEF718FA0020FEF7DC
:1025C00023FA2520FEF720FA2120FEF71DFA052028
:1025D000FEF71AFA0020FEF717FA0A20FEF714FA9F
:1025E0006520FEF711FA2520FEF70EFA7720FEF798
:1025F0000BFA5020FEF708FA0F20FEF705FA00202C
:10260000FEF702FAF820FEF7F1F90120FEF7FCF9D7
:10261000FE20FEF7EBF90020FEF7F6F90220FEF7A8
:10262000F3F92020FEF7E2F93620FEF7DFF9082063
:1026300000E037E0FEF7E8F93A20FEF7D7F9552039
:10264000FEF7E2F92B20FEF7D1F90020FEF7DCF9C6
:10265000002009E044340020204C43442049443AFF
:1026600025780D0A00000000FEF7CEF90120FEF7E4
:10267000CBF93F20FEF7C8F92A20FEF7B7F9002072
:10268000FEF7C2F90020FEF7BFF90120FEF7BCF902
:10269000DF20FEF7B9F9782003F0EFFF2920FEF7DD
:1026A000A5F941E7FE48808845F21031884240F0A4
:1026B0007C87ED20FEF79AF90120FEF7A5F9FE20B0
:1026C000FEF7A2F9EE20FEF791F9DE20FEF79CF965
:1026D0002120FEF799F9F120FEF788F90120FEF795
:1026E00093F9DF20FEF782F91020FEF78DF9C42060
:1026F000FEF77CF98F20FEF787F9C620FEF776F902
:102700000020FEF781F9E220FEF77EF9E220FEF7D5
:102710007BF9E220FEF778F9BF20FEF767F9AA20DF
:10272000FEF772F9B020FEF761F90D20FEF76CF9A3
:102730000020FEF769F90D20FEF766F90020FEF78C
:1027400063F91120FEF760F90020FEF75DF919200A
:10275000FEF75AF90020FEF757F92120FEF754F949
:102760000020FEF751F92D20FEF74EF90020FEF76C
:102770004BF93D20FEF748F90020FEF745F95D20B2
:10278000FEF742F90020FEF73FF95D20FEF73CF925
:102790000020FEF739F9B120FEF728F98020FEF776
:1027A00033F90020FEF730F98B20FEF72DF90020D9
:1027B000FEF72AF99620FEF727F90020FEF724F904
:1027C000B220FEF713F90020FEF71EF90020FEF7F5
:1027D0001BF90220FEF718F90020FEF715F9032077
:1027E000FEF712F90020FEF70FF9B320FEF7FEF80E
:1027F0000020FEF709F90020FEF706F90020FEF799
:1028000003F90020FEF700F90020FEF7FDF8002094
:10281000FEF7FAF80020FEF7F7F80020FEF7F4F8CC
:102820000020FEF7F1F80020FEF7EEF80020FEF79A
:10283000EBF80020FEF7E8F80020FEF7E5F80020AE
:10284000FEF7E2F80020FEF7DFF80020FEF7DCF8E4
:102850000020FEF7D9F80020FEF7D6F80020FEF79A
:10286000D3F80020FEF7D0F80020FEF7CDF80020C6
:10287000FEF7CAF80020FEF7C7F80020FEF7C4F8FC
:10288000B420FEF7B3F88B20FEF7BEF80020FEF769
:10289000BBF89620FEF7B8F80020FEF7B5F8A120A7
:1028A000FEF7B2F80020FEF7AFF8B520FEF79EF86D
:1028B0000220FEF7A9F80020FEF7A6F80320FEF795
:1028C000A3F80020FEF7A0F80420FEF79DF80020F2
:1028D000FEF79AF8B620FEF789F80020FEF794F884
:1028E0000020FEF791F8B720FEF780F80020FEF7F1
:1028F0008BF80020FEF788F83F20FEF785F80020CF
:10290000FEF782F85E20FEF77FF80020FEF77CF8E5
:102910006420FEF779F80020FEF776F88C20FEF7A9
:1029200073F80020FEF770F8AC20FEF76DF8002079
:10293000FEF76AF8DC20FEF767F80020FEF764F87F
:102940007020FEF761F80020FEF75EF89020FEF799
:102950005BF80020FEF758F8EB20FEF755F8002052
:10296000FEF752F8DC20FEF74FF80020FEF74CF897
:10297000B820FEF73BF80020FEF746F80020FEF7EF
:1029800043F80020FEF740F80020FEF73DF8002055
:10299000FEF73AF80020FEF737F80020FEF734F88B
:1029A0000020FEF731F8BA20FEF720F82420FEF7C9
:1029B0002BF80020FEF728F80020FEF725F800206D
:1029C000FEF722F8C120FEF711F82020FEF71CF8D0
:1029D0000020FEF719F85420FEF716F80020FEF745
:1029E00013F8FF20FEF710F80020FEF70DF8C220C4
:1029F000FDF7FCFF0A20FEF707F80020FEF704F8B9
:102A00000420FEF701F80020FDF7FEFFC320FDF7CC
:102A1000EDFF3C20FDF7F8FF0020FDF7F5FF3A2021
:102A2000FDF7F2FF0020FDF7EFFF3920FDF7ECFF87
:102A30000020FDF7E9FF3720FDF7E6FF0020FDF756
:102A4000E3FF3C20FDF7E0FF0020FDF7DDFF36202F
:102A5000FDF7DAFF0020FDF7D7FF3220FDF7D4FFA6
:102A60000020FDF7D1FF2F20FDF7CEFF0020FDF75E
:102A7000CBFF2C20FDF7C8FF0020FDF7C5FF292064
:102A8000FDF7C2FF0020FDF7BFFF2620FDF7BCFFCA
:102A90000020FDF7B9FF2420FDF7B6FF002001E07C
:102AA00044340020FDF7B0FF2420FDF7ADFF0020E7
:102AB000FDF7AAFF2320FDF7A7FF0020FDF7A4FFE5
:102AC0003C20FDF7A1FF0020FDF79EFF3620FDF71B
:102AD0009BFF0020FDF798FF3220FDF795FF0020B7
:102AE000FDF792FF2F20FDF78FFF0020FDF78CFFF1
:102AF0002C20FDF789FF0020FDF786FF2920FDF738
:102B000083FF0020FDF780FF2620FDF77DFF0020DA
:102B1000FDF77AFF2420FDF777FF0020FDF774FF13
:102B20002420FDF771FF0020FDF76EFF2320FDF745
:102B30006BFF0020FDF768FFC420FDF757FF622000
:102B4000FDF762FF0020FDF75FFF0520FDF75CFF4A
:102B50000020FDF759FF8420FDF756FF0020FDF708
:102B600053FFF020FDF750FF0020FDF74DFF182028
:102B7000FDF74AFF0020FDF747FFA420FDF744FFC3
:102B80000020FDF741FF1820FDF73EFF0020FDF774
:102B90003BFF5020FDF738FF0020FDF735FF0C20EC
:102BA000FDF732FF0020FDF72FFF1720FDF72CFF68
:102BB0000020FDF729FF9520FDF726FF0020FDF7F7
:102BC00023FFF320FDF720FF0020FDF71DFFE62087
:102BD000FDF71AFF0020FDF717FFC520FDF706FFE0
:102BE0003220FDF711FF0020FDF70EFF4420FDF716
:102BF0000BFF0020FDF708FF6520FDF705FF002013
:102C0000FDF702FF7620FDF7FFFE0020FDF7FCFE3A
:102C10008820FDF7F9FE0020FDF7F6FEC620FDF73F
:102C2000E5FE2020FDF7F0FE0020FDF7EDFE172069
:102C3000FDF7EAFE0020FDF7E7FE0120FDF7E4FEC8
:102C40000020FDF7E1FEC720FDF7D0FE0020FDF7D4
:102C5000DBFE0020FDF7D8FE0020FDF7D5FE0020AA
:102C6000FDF7D2FEC820FDF7C1FE0020FDF7CCFE27
:102C70000020FDF7C9FE0020FDF7C6FE0020FDF78D
:102C8000C3FEC920FDF7B2FE0020FDF7BDFE002007
:102C9000FDF7BAFE0020FDF7B7FE0020FDF7B4FEF9
:102CA0000020FDF7B1FE0020FDF7AEFE0020FDF78D
:102CB000ABFE0020FDF7A8FE0020FDF7A5FE0020DA
:102CC000FDF7A2FE0020FDF79FFE0020FDF79CFE11
:102CD0000020FDF799FE0020FDF796FE0020FDF78D
:102CE00093FE0020FDF790FEE020FDF77FFE16200A
:102CF000FDF78AFE0020FDF787FE1C20FDF784FE0D
:102D00000020FDF781FE2120FDF77EFE0020FDF76B
:102D10007BFE3620FDF778FE0020FDF775FE46208D
:102D2000FDF772FE0020FDF76FFE5220FDF76CFEEE
:102D30000020FDF769FE6420FDF766FE0020FDF728
:102D400063FE7A20FDF760FE0020FDF75DFE8B201C
:102D5000FDF75AFE0020FDF757FE9920FDF754FEBF
:102D60000020FDF751FEA820FDF74EFE0020FDF7E4
:102D70004BFEB920FDF748FE0020FDF745FEC420BC
:102D8000FDF742FE0020FDF73FFECA20FDF73CFEA6
:102D90000020FDF739FED220FDF736FE0020FDF7BA
:102DA00033FED920FDF730FE0020FDF72DFEE02098
:102DB000FDF72AFE0020FDF727FEF320FDF724FE95
:102DC0000020FDF721FEE120FDF710FE1620FDF7A3
:102DD0001BFE0020FDF718FE1C20FDF715FE00204D
:102DE000FDF712FE2220FDF70FFE0020FDF70CFE7E
:102DF0003620FDF709FE0020FDF706FE4520FDF711
:102E000003FE0020FDF700FE5220FDF7FDFD00202F
:102E1000FDF7FAFD6420FDF7F7FD0020FDF7F4FD56
:102E20007A20FDF7F1FD0020FDF7EEFD8B20FDF788
:102E3000EBFD0020FDF7E8FD9920FDF7E5FD002002
:102E4000FDF7E2FDA820FDF7DFFD0020FDF7DCFD2A
:102E5000B920FDF7D9FD0020FDF7D6FDC420FDF710
:102E6000D3FD0020FDF7D0FDCA20FDF7CDFD0020E9
:102E7000FDF7CAFDD220FDF7C7FD0020FDF7C4FD18
:102E8000D820FDF7C1FD0020FDF7BEFDE020FDF7D5
:102E9000BBFD0020FDF7B8FDF320FDF7B5FD0020D8
:102EA000FDF7B2FDE220FDF7A1FD0520FDF7ACFD29
:102EB0000020FDF7A9FD0B20FDF7A6FD0020FDF782
:102EC000A3FD1B20FDF7A0FD0020FDF79DFD342094
:102ED000FDF79AFD0020FDF797FD4420FDF794FDD6
:102EE0000020FDF791FD4F20FDF78EFD0020FDF73E
:102EF0008BFD6120FDF788FD0020FDF785FD792021
:102F0000FDF782FD0020FDF77FFD8820FDF77CFDA9
:102F10000020FDF779FD9720FDF776FD0020FDF7F5
:102F200073FDA620FDF770FD0020FDF76DFDB720B5
:102F3000FDF76AFD0020FDF767FDC220FDF764FD87
:102F40000020FDF761FDC720FDF75EFD0020FDF7C5
:102F50005BFDD120FDF758FD0020FDF755FDD62083
:102F6000FDF752FD0020FDF74FFDDD20FDF74CFD84
:102F70000020FDF749FDF320FDF746FD0020FDF799
:102F800043FDE320FDF732FD0520FDF73DFD002068
:102F9000FDF73AFD0A20FDF737FD0020FDF734FD6F
:102FA0001C20FDF731FD0020FDF72EFD3320FDF73D
:102FB0002BFD0020FDF728FD4420FDF725FD002016
:102FC000FDF722FD5020FDF71FFD0020FDF71CFD41
:102FD0006220FDF719FD0020FDF716FD7820FDF7B2
:102FE00013FD0020FDF710FD8820FDF70DFD0020EA
:102FF000FDF70AFD9720FDF707FD0020FDF704FD12
:10300000A620FDF701FD0020FDF7FEFCB720FDF72F
:10301000FBFC0020FDF7F8FCC220FDF7F5FC0020CA
:10302000FDF7F2FCC720FDF7EFFC0020FDF7ECFCFC
:10303000D120FDF7E9FC0020FDF7E6FCD520FDF7E7
:10304000E3FC0020FDF7E0FCDD20FDF7DDFC0020C7
:10305000FDF7DAFCF320FDF7D7FC0020FDF7D4FCE8
:10306000E420FDF7C3FC0120FDF7CEFC0020FDF7B6
:10307000CBFC0120FDF7C8FC0020FDF7C5FC0220B9
:10308000FDF7C2FC0020FDF7BFFC2A20FDF7BCFCC9
:103090000020FDF7B9FC3C20FDF7B6FC0020FDF751
:1030A000B3FC4B20FDF7B0FC0020FDF7ADFC5D202C
:1030B000FDF7AAFC0020FDF7A7FC7420FDF7A4FC97
:1030C0000020FDF7A1FC8420FDF79EFC0020FDF709
:1030D0009BFC9320FDF798FC0020FDF795FCA220B7
:1030E000FDF792FC0020FDF78FFCB320FDF78CFC70
:1030F0000020FDF789FCBE20FDF786FC0020FDF7CF
:1031000083FCC420FDF780FC0020FDF77DFCCD2072
:10311000FDF77AFC0020FDF777FCD320FDF774FC67
:103120000020FDF771FCDD20FDF76EFC0020FDF7AF
:103130006BFCF320FDF768FC0020FDF765FCE52043
:10314000FDF754FC0020FDF75FFC0020FDF75CFC60
:103150000020FDF759FC0020FDF756FC0220FDF78A
:1031600053FC0020FDF750FC2920FDF74DFC00200A
:10317000FDF74AFC3C20FDF747FC0020FDF744FC2E
:103180004B20FDF741FC0020FDF73EFC5D20FDF7E4
:103190003BFC0020FDF738FC7420FDF735FC0020D7
:1031A000FDF732FC8420FDF72FFC0020FDF72CFCFE
:1031B0009320FDF729FC0020FDF726FCA220FDF757
:1031C00023FC0020FDF720FCB320FDF71DFC0020B0
:1031D000FDF71AFCBE20FDF717FC0020FDF714FCDC
:1031E000C420FDF711FC0020FDF70EFCCD20FDF7FB
:1031F0000BFC0020FDF708FCD320FDF705FC0020A8
:10320000FDF702FCDC20FDF7FFFB0020FDF7FCFBD7
:10321000F320FDF7F9FB0020FDF7F6FBE620FDF7B4
:10322000E5FB1120FDF7F0FB0020FDF7EDFB34205E
:10323000FDF7EAFB0020FDF7E7FB5620FDF7E4FB76
:103240000020FDF7E1FB7620FDF7DEFB0020FDF717
:10325000DBFB7720FDF7D8FB0020FDF7D5FB6620D0
:10326000FDF7D2FB0020FDF7CFFB8820FDF7CCFB5C
:103270000020FDF7C9FB9920FDF7C6FB0020FDF7F4
:10328000C3FBBB20FDF7C0FB0020FDF7BDFB992071
:10329000FDF7BAFB0020FDF7B7FB6620FDF7B4FB96
:1032A0000020FDF7B1FB5520FDF7AEFB0020FDF738
:1032B000ABFB5520FDF7A8FB0020FDF7A5FB452043
:1032C000FDF7A2FB0020FDF79FFB4320FDF79CFBD1
:1032D0000020FDF799FB4420FDF796FB0020FDF749
:1032E00093FBE720FDF782FB3220FDF78DFB0020EA
:1032F000FDF78AFB5520FDF787FB0020FDF784FBD7
:103300007620FDF781FB0020FDF77EFB6620FDF7B0
:103310007BFB0020FDF778FB6720FDF775FB0020A5
:10332000FDF772FB6720FDF76FFB0020FDF76CFBDC
:103330008720FDF769FB0020FDF766FB9920FDF76C
:1033400063FB0020FDF760FBBB20FDF75DFB002069
:10335000FDF75AFB9920FDF757FB0020FDF754FBC2
:103360007720FDF751FB0020FDF74EFB4420FDF7D1
:103370004BFB0020FDF748FB5620FDF745FB0020E6
:10338000FDF742FB2320FDF73FFB0020FDF73CFB50
:103390003320FDF739FB0020FDF736FB4520FDF714
:1033A00033FB0020FDF730FBE820FDF71FFB00207A
:1033B000FDF72AFB0020FDF727FB9920FDF724FBF2
:1033C0000020FDF721FB8720FDF71EFB0020FDF705
:1033D0001BFB8820FDF718FB0020FDF715FB77206D
:1033E000FDF712FB0020FDF70FFB6620FDF70CFB3D
:1033F0000020FDF709FB8820FDF706FB0020FDF704
:1034000003FBAA20FDF700FB0020FDF7FDFABB201F
:10341000FDF7FAFA0020FDF7F7FA9920FDF7F4FA24
:103420000020FDF7F1FA6620FDF7EEFA0020FDF727
:10343000EBFA5520FDF7E8FA0020FDF7E5FA5520F4
:10344000FDF7E2FA0020FDF7DFFA4420FDF7DCFA91
:103450000020FDF7D9FA4420FDF7D6FA0020FDF749
:10346000D3FA5520FDF7D0FA0020FDF7CDFAE92078
:10347000FDF7BCFAAA20FDF7C7FA0020FDF7C4FA51
:103480000020FDF7C1FA0020FDF7BEFA0020FDF78D
:10349000ADFAAA20FDF7B8FACF20FDF7A7FA002071
:1034A000FDF7B2FA0020FDF7AFFA0020FDF7ACFA05
:1034B0000020FDF7A9FA0020FDF7A6FA0020FDF78D
:1034C000A3FA0020FDF7A0FA0020FDF79DFA0020E6
:1034D000FDF79AFA0020FDF797FA0020FDF794FA1D
:1034E0000020FDF791FA0020FDF78EFA0020FDF78D
:1034F0008BFA0020FDF788FA0020FDF785FA0020FE
:10350000FDF782FAF020FDF771FA0020FDF77CFA52
:103510005020FDF779FA0020FDF776FA0020FDF73C
:1035200073FA0020FDF770FAF320FDF75FFA002030
:10353000FDF76AFAF920FDF759FA0620FDF764FA5B
:103540001020FDF761FA2920FDF75EFA0020FDF753
:103550005BFA3A20FDF74AFA5520FDF755FA11209B
:10356000FDF744FA642003F088F82920FDF73EFABD
:103570003520FDF73BFA0020FDF746FA5120FDF714
:1035800035FAFF20FDF740FA5320FDF72FFA2C20E3
:10359000FDF73AFA5520FDF729FA8220FDF734FAB3
:1035A0002C20FDF723FA02F066BBFE48808845F226
:1035B000105188427ED155214FF47040FDF774FAC6
:1035C000AA214FF20100FDF76FFA52214FF20200DB
:1035D000FDF76AFA08214FF20300FDF765FA0121B1
:1035E0004FF20400FDF760FA0D214FF43040FDF773
:1035F0005BFA0D214BF20100FDF756FA0D214BF25B
:103600000200FDF751FA34214FF43640FDF74CFA31
:1036100034214BF20160FDF747FA34214BF202608E
:10362000FDF742FA0D214FF43140FDF73DFA0D212F
:103630004BF20110FDF738FA0D214BF20210FDF7A5
:1036400033FA34214FF43740FDF72EFA34214BF290
:103650000170FDF729FA34214BF20270FDF724FACC
:1036600000214FF43240FDF71FFA00214BF20120F8
:10367000FDF71AFA00214BF20220FDF715FA24217A
:103680004FF43840FDF710FA24214BF60100FDF706
:103690000BFA24214BF60200FDF706FA01214FF444
:1036A0003F40FDF701FA0F214FF43340FDF7FCF9DD
:1036B0000F2100E0FEE34BF20130FDF7F5F90F2199
:1036C0004BF20230FDF7F0F934214FF43940FDF7A9
:1036D000EBF934214BF60110FDF7E6F934214BF6F6
:1036E0000210FDF7E1F908214FF43540FDF7DCF950
:1036F00008214BF20150FDF7D7F908214BF2025097
:10370000FDF7D2F903214FF44240FDF7CDF9242112
:103710004FF43A40FDF7C8F924214BF60120FDF79C
:10372000C3F924214BF60220FDF7BEF900214FF426
:103730003C40FDF7B9F978214BF60140FDF7B4F9AB
:1037400000214BF60240FDF7AFF900214FF43D4058
:10375000FDF7AAF978214BF60150FDF7A5F90021F4
:103760004BF60250FDF7A0F900214FF43E40FDF763
:103770009BF964214BF60160FDF796F900214FF4A7
:103780005140FDF791F933214DF20110FDF78CF90D
:1037900000214DF20210FDF787F934214DF203109C
:1037A000FDF782F900214DF20410FDF77DF93A2171
:1037B0004DF20510FDF778F900214DF20610FDF7E6
:1037C00073F94A214DF20710FDF76EF900214DF211
:1037D0000810FDF769F95C214DF20910FDF764F955
:1037E00000214DF20A10FDF75FF981214DF20B1017
:1037F000FDF75AF900214DF20C10FDF755F9A621FD
:103800004DF20D10FDF750F900214DF20E10FDF7AD
:103810004BF9E5214DF20F10FDF746F901214DF26C
:103820001010FDF741F913214DF21110FDF73CF98D
:1038300001214DF21210FDF737F954214DF213100A
:10384000FDF732F901214DF21410FDF72DF9822117
:103850004DF21510FDF728F901214DF21610FDF774
:1038600023F9CA214DF21710FDF71EF902214DF27E
:103870001810FDF719F900214DF21910FDF714F990
:1038800002214DF21A10FDF70FF901214DF21B1024
:10389000FDF70AF902214DF21C10FDF705F934215C
:1038A0004DF21D10FDF700F902214DF21E10FDF73B
:1038B000FBF867214DF21F10FDF7F6F802214DF2DB
:1038C0002010FDF7F1F884214DF22110FDF7ECF8FE
:1038D00002214DF22210FDF7E7F8A4214DF223104A
:1038E000FDF7E2F802214DF22410FDF7DDF8B721D3
:1038F0004DF22510FDF7D8F802214DF22610FDF704
:10390000D3F8CF214DF22710FDF7CEF802214DF26A
:103910002810FDF7C9F8DE214DF22910FDF7C4F893
:1039200002214DF22A10FDF7BFF8F2214DF22B10C3
:10393000FDF7BAF802214DF22C10FDF7B5F8FE2183
:103940004DF22D10FDF7B0F803214DF22E10FDF7CA
:10395000ABF810214DF22F10FDF7A6F803214DF220
:103960003010FDF7A1F833214DF23110FDF79CF82E
:1039700003214DF23210FDF797F86D214DF233100F
:10398000FDF792F800214FF45240FDF78DF83321F6
:103990004DF20120FDF788F800214DF20220FDF7DD
:1039A00083F801E04434002034214DF20320FDF778
:1039B0007BF800214DF20420FDF776F83A214DF214
:1039C0000520FDF771F800214DF20620FDF76CF897
:1039D0004A214DF20720FDF767F800214DF208203B
:1039E000FDF762F85C214DF20920FDF75DF800213A
:1039F0004DF20A20FDF758F881214DF20B20FDF71A
:103A000053F800214DF20C20FDF74EF8A6214DF29F
:103A10000D20FDF749F800214DF20E20FDF744F886
:103A2000E5214DF20F20FDF73FF801214DF2102066
:103A3000FDF73AF813214DF21120FDF735F8012179
:103A40004DF21220FDF730F854214DF21320FDF70E
:103A50002BF801214DF21420FDF726F882214DF2BA
:103A60001520FDF721F801214DF21620FDF71CF875
:103A7000CA214DF21720FDF717F802214DF2182048
:103A8000FDF712F800214DF21920FDF70DF8022183
:103A90004DF21A20FDF708F801214DF21B20FDF729
:103AA00003F802214DF21C20FCF7FEFF34214DF2F9
:103AB0001D20FCF7F9FF02214DF21E20FCF7F4FF58
:103AC00067214DF21F20FCF7EFFF02214DF220206D
:103AD000FCF7EAFF84214DF22120FCF7E5FF0221EB
:103AE0004DF22220FCF7E0FFA4214DF22320FCF749
:103AF000DBFF02214DF22420FCF7D6FFB7214DF267
:103B00002520FCF7D1FF02214DF22620FCF7CCFF47
:103B1000CF214DF22720FCF7C7FF02214DF22820CC
:103B2000FCF7C2FFDE214DF22920FCF7BDFF022188
:103B30004DF22A20FCF7B8FFF2214DF22B20FCF7C2
:103B4000B3FF02214DF22C20FCF7AEFFFE214DF217
:103B50002D20FCF7A9FF03214DF22E20FCF7A4FF36
:103B600010214DF22F20FCF79FFF03214DF2302052
:103B7000FCF79AFF33214DF23120FCF795FF03212A
:103B80004DF23220FCF790FF6D214DF23320FCF70F
:103B90008BFF00214FF45340FCF786FF33214DF299
:103BA0000130FCF781FF00214DF20230FCF77CFF71
:103BB00034214DF20330FCF777FF00214DF2043041
:103BC000FCF772FF3A214DF20530FCF76DFF002142
:103BD0004DF20630FCF768FF4A214DF20730FCF742
:103BE00063FF00214DF20830FCF75EFF5C214DF2CF
:103BF0000930FCF759FF00214DF20A30FCF754FF61
:103C000081214DF20B30FCF74FFF00214DF20C30BB
:103C1000FCF74AFFA6214DF20D30FCF745FF0021CD
:103C20004DF20E30FCF740FFE5214DF20F30FCF76E
:103C30003BFF01214DF21030FCF736FF13214DF20E
:103C40001130FCF731FF01214DF21230FCF72CFF4F
:103C500054214DF21330FCF727FF01214DF21430AF
:103C6000FCF722FF82214DF21530FCF71DFF0121E8
:103C70004DF21630FCF718FFCA214DF21730FCF751
:103C800013FF02214DF21830FCF70EFF00214DF218
:103C90001930FCF709FF02214DF21A30FCF704FF3E
:103CA00001214DF21B30FCF7FFFE02214DF21C30CA
:103CB000FCF7FAFE34214DF21D30FCF7F5FE02212F
:103CC0004DF21E30FCF7F0FE67214DF21F30FCF77D
:103CD000EBFE02214DF22030FCF7E6FE84214DF28E
:103CE0002130FCF7E1FE02214DF22230FCF7DCFE30
:103CF000A4214DF22330FCF7D7FE02214DF22430EF
:103D0000FCF7D2FEB7214DF22530FCF7CDFE0221A3
:103D10004DF22630FCF7C8FECF214DF22730FCF7DC
:103D2000C3FE02214DF22830FCF7BEFEDE214DF22B
:103D30002930FCF7B9FE02214DF22A30FCF7B4FE1F
:103D4000F2214DF22B30FCF7AFFE02214DF22C3068
:103D5000FCF7AAFEFE214DF22D30FCF7A5FE032153
:103D60004DF22E30FCF7A0FE10214DF22F30FCF763
:103D70009BFE03214DF23030FCF796FE33214DF2CD
:103D80003130FCF791FE03214DF23230FCF78CFE0E
:103D90006D214DF23330FCF787FE00214FF4544083
:103DA000FCF782FE33214DF20140FCF77DFE00213D
:103DB0004DF20240FCF778FE34214DF20340FCF74F
:103DC00073FE00214DF20440FCF76EFE3A214DF2E5
:103DD0000540FCF769FE00214DF20640FCF764FE49
:103DE0004A214DF20740FCF75FFE00214DF20840EA
:103DF000FCF75AFE5C214DF20940FCF755FE00210C
:103E00004DF20A40FCF750FE81214DF20B40FCF7C9
:103E10004BFE00214DF20C40FCF746FEA6214DF270
:103E20000D40FCF741FE00214DF20E40FCF73CFE38
:103E3000E5214DF20F40FCF737FE01214DF2104015
:103E4000FCF732FE13214DF21140FCF72DFE01214B
:103E50004DF21240FCF728FE54214DF21340FCF7BE
:103E600023FE01214DF21440FCF71EFE82214DF28B
:103E70001540FCF719FE01214DF21640FCF714FE27
:103E8000CA214DF21740FCF70FFE02214DF21840F7
:103E9000FCF70AFE00214DF21940FCF705FE022155
:103EA0004DF21A40FCF700FE01214DF21B40FCF7D9
:103EB000FBFD00E004E302214DF21C40FCF7F4FDA1
:103EC00034214DF21D40FCF7EFFD02214DF21E4062
:103ED000FCF7EAFD67214DF21F40FCF7E5FD0221EA
:103EE0004DF22040FCF7E0FD84214DF22140FCF72B
:103EF000DBFD02214DF22240FCF7D6FDA4214DF25C
:103F00002340FCF7D1FD02214DF22440FCF7CCFD0B
:103F1000B7214DF22540FCF7C7FD02214DF22640A6
:103F2000FCF7C2FDCF214DF22740FCF7BDFD022179
:103F30004DF22840FCF7B8FDDE214DF22940FCF798
:103F4000B3FD02214DF22A40FCF7AEFDF2214DF205
:103F50002B40FCF7A9FD02214DF22C40FCF7A4FDFB
:103F6000FE214DF22D40FCF79FFD03214DF22E4026
:103F7000FCF79AFD10214DF22F40FCF795FD03212F
:103F80004DF23040FCF790FD33214DF23140FCF70B
:103F90008BFD03214DF23240FCF786FD6D214DF281
:103FA0003340FCF781FD00214FF45540FCF77CFDC8
:103FB00033214DF20150FCF777FD00214DF2025004
:103FC000FCF772FD34214DF20350FCF76DFD00212A
:103FD0004DF20450FCF768FD3A214DF20550FCF714
:103FE00063FD00214DF20650FCF75EFD4A214DF2C3
:103FF0000750FCF759FD00214DF20850FCF754FD25
:104000005C214DF20950FCF74FFD00214DF20A50A2
:10401000FCF74AFD81214DF20B50FCF745FD0021D4
:104020004DF20C50FCF740FDA6214DF20D50FCF76F
:104030003BFD00214DF20E50FCF736FDE5214DF21F
:104040000F50FCF731FD01214DF21050FCF72CFD13
:1040500013214DF21150FCF727FD01214DF21250B2
:10406000FCF722FD54214DF21350FCF71DFD0121F8
:104070004DF21450FCF718FD82214DF21550FCF75B
:1040800013FD01214DF21650FCF70EFDCA214DF231
:104090001750FCF709FD02214DF21850FCF704FD02
:1040A00000214DF21950FCF7FFFC02214DF21A508D
:1040B000FCF7FAFC01214DF21B50FCF7F5FC022144
:1040C0004DF21C50FCF7F0FC34214DF21D50FCF772
:1040D000EBFC02214DF21E50FCF7E6FC67214DF28D
:1040E0001F50FCF7E1FC02214DF22050FCF7DCFCF4
:1040F00084214DF22150FCF7D7FC02214DF22250D1
:10410000FCF7D2FCA4214DF22350FCF7CDFC022198
:104110004DF22450FCF7C8FCB7214DF22550FCF7B6
:10412000C3FC02214DF22650FCF7BEFCCF214DF21C
:104130002750FCF7B9FC02214DF22850FCF7B4FCE3
:10414000DE214DF22950FCF7AFFC02214DF22A503E
:10415000FCF7AAFCF2214DF22B50FCF7A5FC022142
:104160004DF22C50FCF7A0FCFE214DF22D50FCF737
:104170009BFC03214DF22E50FCF796FC10214DF2D2
:104180002F50FCF791FC03214DF23050FCF78CFCD2
:1041900033214DF23150FCF787FC03214DF23250B0
:1041A000FCF782FC6D214DF23350FCF77DFC0021C1
:1041B0004FF45640FCF778FC33214DF20160FCF7D8
:1041C00073FC00214DF20260FCF76EFC34214DF2CD
:1041D0000360FCF769FC00214DF20460FCF764FC0D
:1041E0003A214DF20560FCF75FFC00214DF20660BC
:1041F000FCF75AFC4A214DF20760FCF755FC002100
:104200004DF20860FCF750FC5C214DF20960FCF7B0
:104210004BFC00214DF20A60FCF746FC81214DF277
:104220000B60FCF741FC00214DF20C60FCF73CFCFC
:10423000A6214DF20D60FCF737FC00214DF20E6017
:10424000FCF732FCE5214DF20F60FCF72DFC01215B
:104250004DF21060FCF728FC13214DF21160FCF7C1
:1042600023FC01214DF21260FCF71EFC54214DF29B
:104270001360FCF719FC01214DF21460FCF714FCEB
:1042800082214DF21560FCF70FFC01214DF2166002
:10429000FCF70AFCCA214DF21760FCF705FC02216D
:1042A0004DF21860FCF700FC00214DF21960FCF79C
:1042B000FBFB02214DF21A60FCF7F6FB01214DF2E7
:1042C0001B60FCF7F1FB02214DF21C60FCF7ECFBDC
:1042D00034214DF21D60FCF7E7FB02214DF21E6018
:1042E000FCF7E2FB67214DF21F60FCF7DDFB0221CA
:1042F0004DF22060FCF7D8FB84214DF22160FCF7E1
:10430000D3FB02214DF22260FCF7CEFBA4214DF23B
:104310002360FCF7C9FB02214DF22460FCF7C4FBCB
:10432000B7214DF22560FCF7BFFB02214DF226605C
:10433000FCF7BAFBCF214DF22760FCF7B5FB022159
:104340004DF22860FCF7B0FBDE214DF22960FCF74E
:10435000ABFB02214DF22A60FCF7A6FBF2214DF2E5
:104360002B60FCF7A1FB02214DF22C60FCF79CFBBB
:10437000FE214DF22D60FCF797FB03214DF22E60DC
:10438000FCF792FB10214DF22F60FCF78DFB03210F
:104390004DF23060FCF788FB33214DF23160FCF7C1
:1043A00083FB03214DF23260FCF77EFB6D214DF261
:1043B0003360FCF779FB55214FF47040FCF774FB38
:1043C000AA214FF20100FCF76FFB52214FF20200CD
:1043D000FCF76AFB08214FF20300FCF765FB0021A4
:1043E0004FF20400FCF760FBCC214FF43140FCF7A6
:1043F0005BFB00214BF20110FCF756FB05214FF44B
:104400003640FCF751FB70214FF43740FCF74CFB72
:1044100070214BF20170FCF747FB01214FF438404B
:10442000FCF742FB03214BF60100FCF73DFB0321A7
:104430004BF60200FCF738FB03214BF60300FCF7B8
:1044400033FB02214FF43C40FCF72EFB00214BF6DE
:104450000140FCF729FB00214BF60240FCF724FB4E
:10446000D0214FF44940FCF71FFB02214CF601100C
:10447000FCF71AFB50214CF60210FCF715FB5021FB
:104480004CF60310FCF710FB50214CF60410FCF71F
:104490000BFB00214FF45450FCF706FB55214FF461
:1044A0006850FCF701FB4FF48850FCF79FFA782026
:1044B00002F0BFF84FF42450FCF798FA01F0DBBB90
:1044C000FE48808849F2253188427DD147F6F001C7
:1044D000E520FCF7E9FA4FF480710120FCF7E4FADB
:1044E0004FF4E0610220FCF7DFFA41F230010320D3
:1044F000FCF7DAFA00210420FCF7D6FA40F2022198
:104500000820FCF7D1FA00210920FCF7CDFA0021A0
:104510000A20FCF7C9FA00210C20FCF7C5FA00219B
:104520000D20FCF7C1FA00210F20FCF7BDFA002195
:104530001020FCF7B9FA07211120FCF7B5FA002189
:104540001220FCF7B1FA00211320FCF7ADFA00218C
:104550000720FCF7A9FA41F290611020FCF7A4FAB9
:1045600040F227211120FCF79FFA9D211220FCF731
:104570009BFA4FF4C8511320FCF796FA2521292005
:10458000FCF792FA0D212B20FCF78EFA0721302040
:10459000FCF78AFA40F203313120FCF785FA032157
:1045A0003220FCF781FA40F206213520FCF77CFA34
:1045B00008213620FCF778FA40F206413720FCF754
:1045C00073FA4FF4417100E058E03820FCF76CFAC0
:1045D00007213920FCF768FA40F202613C20FCF721
:1045E00063FA08213D20FCF75FFA00215020FCF718
:1045F0005BFAEF215120FCF757FA00215220FCF71B
:1046000053FA40F23F115320FCF74EFA4FF4274182
:104610006020FCF749FA01216120FCF745FA0021EE
:104620006A20FCF741FA00218020FCF73DFA0021C6
:104630008120FCF739FA00218220FCF735FA0021AD
:104640008320FCF731FA00218420FCF72DFA0021A9
:104650008520FCF729FA10219020FCF725FA4FF469
:10466000C0619220FCF720FA40F233110720FCF7DA
:104670001BFA22210020FCF717FA1FE78F488088D9
:1046800049F2283188427DD141F28F01EC20FCF7BC
:104690000BFA41F23421EF20FCF706FA4FF4807157
:1046A0000120FCF701FA4FF4E0610220FCF7FCF96D
:1046B00041F230010320FCF7F7F900210420FCF758
:1046C000F3F940F202210820FCF7EEF9002109205D
:1046D000FCF7EAF900210A20FCF7E6F901210C2099
:1046E000FCF7E2F900210D20FCF7DEF900210F2094
:1046F000FCF7DAF900211020FCF7D6F90721112088
:10470000FCF7D2F900211220FCF7CEF9002113208A
:10471000FCF7CAF901210720FCF7C6F9322001F0A5
:10472000ACFF41F290411020FCF7BEF940F2272186
:104730001120FCF7B9F9322001F09FFF8A211220E5
:10474000FCF7B2F9322001F098FF4FF4D05113205A
:10475000FCF7AAF906212920FCF7A6F90D212B2048
:10476000FCF7A2F9322001F088FF00212020FCF79D
:104770009BF900212120FCF797F9322001F07DFF01
:10478000002100E075E03020FCF78EF940F2046172
:104790003120FCF789F940F205313220FCF784F929
:1047A00000213520FCF780F940F609413620FCF75E
:1047B0007BF94FF401713720FCF776F940F20131B3
:1047C0003820FCF771F940F207713920FCF76CF9D9
:1047D00000213C20FCF768F940F60A213D20FCF757
:1047E00063F9322001F049FF00215020FCF75CF909
:1047F000EF215120FCF758F900215220FCF754F921
:1048000040F23F115320FCF74FF94FF4274160204D
:10481000FCF74AF901216120FCF746F900216A20E2
:10482000FCF742F900218020FCF73EF900218120AD
:10483000FCF73AF900218220FCF736F900218320A9
:10484000FCF732F900218420FCF72EF900218520A5
:10485000FCF72AF910219020FCF726F94FF4C061EB
:104860009220FCF721F940F233110720FCF71CF9E4
:1048700024E61248808849F2203188427ED1002106
:104880000846FCF711F94FF480710120FCF70CF990
:104890004FF4E0610220FCF707F941F230010320F8
:1048A000FCF702F900210420FCF7FEF840F2022197
:1048B0000820FCF7F9F80021092001E04434002029
:1048C000FCF7F2F800210A20FCF7EEF801210C2099
:1048D000FCF7EAF800210D20FCF7E6F800210F2094
:1048E000FCF7E2F8322001F0C8FE40F20111072087
:1048F000FCF7DAF8322001F0C0FE4FF486511020A8
:10490000FCF7D2F807211120FCF7CEF84FF488719C
:104910001220FCF7C9F84FF430611320FCF7C4F8FB
:1049200000212920FCF7C0F844F210012B20FCF7ED
:10493000BBF800215020FCF7B7F8EF215120FCF71D
:10494000B3F800215220FCF7AFF840F23F1153209A
:10495000FCF7AAF84FF41C516020FCF7A5F80121E0
:104960006120FCF7A1F800216A20FCF79DF80021E6
:104970008020FCF799F80021812000E030E0FCF76E
:1049800093F800218220FCF78FF800218320FCF7A8
:104990008BF800218420FCF787F800218520FCF7A4
:1049A00083F810219020FCF77FF800219220FCF77B
:1049B0007BF801219320FCF777F84FF4887195205C
:1049C000FCF772F800219720FCF76EF80021982080
:1049D000FCF76AF840F273110720FCF765F86DE503
:1049E000FE48808849F2313188427DD141F214017C
:1049F000E720FCF759F84FF480710120FCF754F8D8
:104A00004FF400710220FCF74FF841F23801032007
:104A1000FCF74AF840F202210820FCF745F8002193
:104A20000920FCF741F800210A20FCF73DF800219D
:104A30000C20FCF739F800210D20FCF735F8002197
:104A40000F20FCF731F800211020FCF72DF807218A
:104A50001120FCF729F800211220FCF725F800218D
:104A60001320FCF721F8C82001F007FE41F2906105
:104A70001020FCF719F840F227211120FCF714F858
:104A8000322001F0FAFD0C211220FCF70DF8322043
:104A900001F0F3FD4FF400611320FCF705F811213C
:104AA0002920FCF701F80B212B20FBF7FDFF32201A
:104AB00001F0E3FD00212020FBF7F6FF40F23F115B
:104AC0002120FBF7F1FF00213020FBF7EDFF4FF431
:104AD00083713120FBF7E8FF00213220FBF7E4FF70
:104AE0004FF40171352000E064E0FBF7DDFF41F297
:104AF0000A613620FBF7D8FF40F207713720FBF739
:104B0000D3FF4FF483713820FBF7CEFF40F20771DB
:104B10003920FBF7C9FF40F202413C20FBF7C4FFFC
:104B200040F60F413D20FBF7BFFF00215020FBF76F
:104B3000BBFFEF215120FBF7B7FF00215220FBF70D
:104B4000B3FF40F23F115320FBF7AEFF4FF41C516F
:104B50006020FBF7A9FF01216120FBF7A5FF0021E1
:104B60006A20FBF7A1FF00218020FBF79DFF0021B9
:104B70008120FBF799FF00218220FBF795FF0021A0
:104B80008320FBF791FF00218420FBF78DFF00219C
:104B90008520FBF789FF10219020FBF785FF4FF45C
:104BA000C0619220FBF780FF40F233110720FBF732
:104BB0007BFF83E48948808845F2084188427DD1A3
:104BC0004FF480710120FBF76FFF4FF4E06102208A
:104BD000FBF76AFF41F230010320FBF765FF00217C
:104BE0000420FBF761FF40F207210820FBF75CFF80
:104BF00000210920FBF758FF00210A20FBF754FF92
:104C000000210C20FBF750FF00210D20FBF74CFF8B
:104C100000210F20FBF748FF142001F02EFD41F288
:104C2000B0611020FBF740FF01211120FBF73CFF92
:104C300001211720FBF738FF4FF49C711220FBF77E
:104C400033FF4FF400611320FBF72EFF09212920C9
:104C5000FBF72AFF09212A20FBF726FF0021A420C9
:104C6000FBF722FF00215020FBF71EFFEF21512010
:104C7000FBF71AFF00215220FBF716FF40F23F110D
:104C80005320FBF711FF4FF41C516020FBF70CFF82
:104C900001216120FBF708FF00216A20FBF704FFD8
:104CA00000218020FBF700FF00218120FBF7FCFEA4
:104CB00000218220FBF7F8FE002100E024E08320A1
:104CC000FBF7F2FE00218420FBF7EEFE0021852099
:104CD000FBF7EAFE13219020FBF7E6FE002192206D
:104CE000FBF7E2FE03219320FBF7DEFE4FF4887111
:104CF0009520FBF7D9FE40F273110720FBF7D4FE95
:104D0000322001F0BAFCB8E43448808841F2055101
:104D100088427DD100210720FBF7C6FE322001F03A
:104D2000ACFC4FF48E711220FBF7BEFE0121A420D3
:104D3000FBF7BAFE0F210820FBF7B6FE08210A2078
:104D4000FBF7B2FE08210D20FBF7AEFE40F2077123
:104D50003020FBF7A9FE07213120FBF7A5FE40F22A
:104D600003613220FBF7A0FE4FF4E0613320FBF734
:104D70009BFE40F202213420FBF796FE02213520F3
:104D8000FBF792FE41F60F713620FBF78DFE40F2E5
:104D900007713720FBF788FE00213820FBF784FEDF
:104DA00000213920FBF780FE40F207713A20FBF723
:104DB0007BFE00213B20FBF777FE07213C20FBF721
:104DC00073FE00213D20FBF76FFE322001F055FC01
:104DD00001210720FBF768FE012101E04434002097
:104DE0001720FBF761FE322001F047FC4FF4BD5164
:104DF0001020FBF759FE40F217211120FBF754FE5B
:104E00004FF48F711220FBF74FFE4FF4706100E0FA
:104E100098E01320FBF748FE00212A20FBF744FE10
:104E20000A212920FBF740FE4FF49F711220FBF767
:104E30003BFE00215020FBF737FEEF215120FBF70E
:104E400033FE00215220FBF72FFE40F23F1153208A
:104E5000FBF72AFE4FF41C516020FBF725FE0121D1
:104E60006120FBF721FE00216A20FBF71DFE0021D7
:104E70008020FBF719FE00218120FBF715FE0021A1
:104E80008220FBF711FE00218320FBF70DFE00219D
:104E90008420FBF709FE00218520FBF705FE132186
:104EA0009020FBF701FE4FF440719220FBF7FCFDD0
:104EB00005219320FBF7F8FD00219520FBF7F4FD79
:104EC00000219720FBF7F0FD00219820FBF7ECFD77
:104ED0004FF480710120FBF7E7FD4FF4E061022001
:104EE000FBF7E2FD41F238010320FBF7DDFD002175
:104EF0000420FBF7D9FD00210C20FBF7D5FD002194
:104F00000F20FBF7D1FD00212020FBF7CDFD002174
:104F10002120FBF7C9FD21210720FBF7C5FD142047
:104F200001F0ABFB61210720FBF7BEFD142001F06F
:104F3000A4FB40F273110720FBF7B6FD142001F02B
:104F40009CFB95E4FE4880884BF2055188427CD159
:104F500000210846FBF7A8FD00210846FBF7A4FD49
:104F600000210846FBF7A0FD00210846FBF79CFD49
:104F70000121A420FBF798FD142001F07EFB4FF4E3
:104F80001C516020FBF790FD40F202210820FBF746
:104F90008BFD4FF405713020FBF786FD43F2157150
:104FA0003120FBF781FD40F204613220FBF77CFDEC
:104FB00040F616613320FBF777FD42F211213420D1
:104FC000FBF772FD4FF4A8513520FBF76DFD48F259
:104FD00007513620FBF768FD41F207413720FBF708
:104FE00063FD41F203413820FBF75EFD20213920AB
:104FF000FBF75AFD1A219020FBF756FD00211020E7
:10500000FBF752FD07211120FBF74EFD0021122076
:10501000FBF74AFD00211320FBF746FD142001F0A9
:105020002CFB4FF4E6611020FBF73EFD40F23711F8
:105030001120FBF739FD142001F01FFB4FF4DC7148
:105040001220FBF731FD142000E085E001F015FB94
:105050004FF470611320FBF727FD80212A20FBF716
:1050600023FD48212920FBF71FFD142001F005FB3B
:105070004FF480710120FBF717FD4FF4E06102202F
:10508000FBF712FD41F238010320FBF70DFD40F262
:1050900002210820FBF708FD00210A20FBF704FD90
:1050A00000210C20FBF700FD00210D20FBF7FCFC8C
:1050B00030210E20FBF7F8FC00215020FBF7F4FC18
:1050C000EF215120FBF7F0FC00215220FBF7ECFC14
:1050D00040F23F115320FBF7E7FC4FF41C516020D6
:1050E000FBF7E2FC01216120FBF7DEFC00216A20D6
:1050F000FBF7DAFC11219020FBF7D6FC4FF4C061DE
:105100009220FBF7D1FC40F202419320FBF7CCFC4C
:1051100002219420FBF7C8FC142001F0AEFA012113
:105120000720FBF7C1FC142001F0A7FA612107203A
:10513000FBF7BAFC40F273110720FBF7B5FC002126
:105140002020FBF7B1FC00212120FBF7ADFC222140
:105150000020FBF7A9FC42E4794880884CF2055115
:1051600088427CD100210846FBF79EFC00210846BE
:10517000FBF79AFC142001F080FA00210846FBF7A7
:1051800093FC00210846FBF78FFC00210846FBF743
:105190008BFC00210846FBF787FC0121A420FBF7CC
:1051A00083FC142001F069FA4FF41C516020FBF7D6
:1051B0007BFC40F606010820FBF776FC40F2037109
:1051C0003020FBF771FC01213120FBF76DFC04213D
:1051D0003220FBF769FC4FF481713320FBF764FC4C
:1051E0004FF440713420FBF75FFC40F2031135208F
:1051F000FBF75AFC1F213620FBF756FC40F20371E7
:105200003720FBF751FC01213820FBF74DFC04212E
:105210003920FBF749FC15219020FBF745FC4FF4A2
:1052200082611020FBF740FC40F247211120FBF780
:105230003BFC4FF4DE711220FBF736FC4FF460614B
:105240001320FBF731FC782001F017FA4FF480713E
:105250000120FBF729FC4FF40071022000E052E02E
:10526000FBF722FC41F230010320FBF71DFC082173
:105270000A20FBF719FC00210C20FBF715FC20216C
:105280000E20FBF711FC00210F20FBF70DFC002185
:105290002020FBF709FC00212120FBF705FC3D2124
:1052A0002A20FBF701FC142001F0E7F92D21292029
:1052B000FBF7FAFB00215020FBF7F6FB4DF2EF0164
:1052C0005120FBF7F1FB00215220FBF7EDFB40F2F0
:1052D0003F115320FBF7E8FB00216120FBF7E4FBC3
:1052E00000216A20FBF7E0FB4FF440719220FBF7AE
:1052F000DBFB05219320FBF7D7FB4FF480710720E0
:10530000FBF7D2FB55E40E48808848F689118842A5
:105310007ED101210020FBF7C7FB4AF6A401032040
:10532000FBF7C2FB00210C20FBF7BEFB40F60C0193
:105330000D20FBF7B9FB4FF42C510E2002E00000CA
:1053400044340020FBF7B0FBB0211E20FBF7ACFB80
:1053500042F63F310120FBF7A7FB4FF4C06102206A
:10536000FBF7A2FB00211020FBF79EFB46F2780121
:105370001120FBF799FB00210520FBF795FB00218D
:105380000620FBF791FB4EF61C711620FBF78CFBF9
:1053900003211720FBF788FB40F233210720FBF79E
:1053A00083FB00210B20FBF77FFB00210F20FBF785
:1053B0007BFB00214120FBF777FB00214220FBF71C
:1053C00073FB00214820FBF76FFB40F23F1149209F
:1053D000FBF76AFB00214A20FBF766FB00214B200C
:1053E000FBF762FB4FF46F414420FBF75DFB0021AC
:1053F0004520FBF759FB40F23F114620FBF754FBD9
:1054000040F207713020FBF74FFB4FF4017100E0D1
:1054100040E03120FBF748FB4FF401713220FBF7ED
:1054200043FB40F202513320FBF73EFB40F20751B1
:105430003420FBF739FB4FF401713520FBF734FBC7
:105440004FF401713620FBF72FFB40F20251372059
:10545000FBF72AFB40F202313A20FBF725FB40F232
:1054600002313B20FBF720FB00212320FBF71CFB34
:1054700000212420FBF718FB4FF400412520FBF707
:1054800013FB00214F20FBF70FFB00214E20FBF701
:105490000BFBF0E3FE48808844F2315188427DD115
:1054A00001210020FBF700FB0A2001F0E6F841F2A1
:1054B00028611020FBF7F8FA0E211220FBF7F4FA0E
:1054C00040F639211320FBF7EFFA0A2001F0D5F856
:1054D00040211120FBF7E8FA50211520FBF7E4FAF0
:1054E0000A2001F0CAF81E211220FBF7DDFA0A207B
:1054F00001F0C3F84FF4B1511020FBF7D5FA42F692
:1055000039211320FBF7D0FA0A2001F0B6F84FF446
:1055100080710120FBF7C8FA4FF440710220FBF7BD
:10552000C3FA41F238010320FBF7BEFA40F2022130
:105530000820FBF7B9FA08210A20FBF7B5FA002189
:105540003020FBF7B1FA40F202413120FBF7ACFA10
:105550004FF483713220FBF7A7FA40F20351332056
:10556000FBF7A2FA4FF482713420FBF79DFA40F268
:1055700001313520FBF798FA40F207713620FBF72E
:1055800093FA40F205313720FBF78EFA4FF402719F
:105590003820FBF789FA40F60B7100E03CE0392037
:1055A000FBF782FA02214120FBF77EFA4FF41C51EF
:1055B0006020FBF779FA01216120FBF775FA4FF4BF
:1055C00004719020FBF770FA4FF485719220FBF77D
:1055D0006BFA04219320FBF767FA4FF48071A02047
:1055E000FBF762FA01210720FBF75EFA2121072071
:1055F000FBF75AFA23210720FBF756FA332107203D
:10560000FBF752FA40F233110720FBF74DFA002165
:10561000A020FBF749FA2EE39D48808844F23551DB
:1056200088427CD130211520FBF73EFA10219A20C8
:10563000FBF73AFA20211120FBF736FA43F2284112
:105640001020FBF731FA02211220FBF72DFA41F26C
:1056500038011320FBF728FA282001F00EF8122158
:105660000846FBF721FA282001F007F843F2204111
:105670001020FBF719FA43F238011320FBF714FA54
:10568000462000F0FAFF00213020FBF70DFA40F22F
:1056900002413120FBF708FA40F207313220FBF7D4
:1056A00003FA4FF441713320FBF7FEF90421342053
:1056B000FBF7FAF940F201413520FBF7F5F940F22A
:1056C00007713620FBF7F0F940F205313720FBF780
:1056D000EBF94FF4C2613820FBF7E6F94FF4C261F1
:1056E0003920FBF7E1F94FF480710120FBF7DCF979
:1056F0004FF440710220FBF7D7F941F2300103204B
:10570000FBF7D2F940F608010820FBF7CDF9082194
:105710000A20FBF7C9F94FF41C51602000E033E088
:10572000FBF7C2F901216120FBF7BEF94FF49F712D
:105730009020FBF7B9F94FF480719220FBF7B4F990
:105740004FF480719320FBF7AFF94FF44051A02044
:10575000FBF7AAF91021A320FBF7A6F901210720E6
:10576000FBF7A2F921210720FBF79EF9232107204F
:10577000FBF79AF933210720FBF796F940F2331132
:105780000720FBF791F976E24148808841F66311E2
:105790008842F8D1E220FBF729F94FF480703D49A7
:1057A0000861400048611D203B490860802039495C
:1057B000486108618000086140100861400048614C
:1057C0000220354908608020324948610861800024
:1057D0000861401008614000486104202E490860BB
:1057E00080202C494861086180000861642000F035
:1057F00020FFE020FBF7FAF84FF48070254908619C
:105800004000486101202449086080202149486106
:105810000861800008610A2000F02FFFE020FBF7FC
:10582000E5F84FF480701B4908614000486103208F
:1058300019490860802017494861086180000861A3
:105840000C2000F01AFF0120FBF7D0F80A2000F02E
:1058500014FFE620FBF7CAF84FF480700D49086189
:10586000400048612F200C490860802009494861A8
:105870000861800008614010086140004861FF2015
:10588000054908608020034948610861800005E0FF
:1058900044340020001001400C0C0140086140100D
:1058A000086140004861FF20F84908608020F849FD
:1058B0004861086180000861B020FBF797F84FF459
:1058C0008070F3490861400048612020EF4908607A
:1058D0008020EF494861086180000861401008613C
:1058E000400048610020E94908608020E84948619B
:1058F0000861800008614010086140004861032091
:10590000E24908608020E24948610861800008613E
:10591000401008614000486140F21F30DB490860D8
:105920008020DB49486108618000086140100861FF
:10593000400048610120D54908608020D449486171
:10594000086180000861401008614000486140F231
:10595000DF10CE4908608020CD4948610861800091
:10596000086140100861400048610020C749086094
:105970008020C7494861086180000861B420FBF7B6
:1059800035F84FF48070C249086140004861042036
:10599000BE4908608020BE494861086180000861F6
:1059A000401008614000486140F21F40B74908605C
:1059B0008020B74948610861800008614010086193
:1059C000400048610020B14908608020B04948612A
:1059D00008618000086140100861400048612E2085
:1059E000AA4908608020AA494861086180000861CE
:1059F00040100861400048610020A44908608020F0
:105A0000A3494861086180000861401008614000B6
:105A1000486100209D49086080209D4948610861D7
:105A200080000861401008614000486100209749EB
:105A30000860802096494861086180000861401034
:105A4000086140004861002090490860802090492A
:105A50004861086180000861B620FAF7C7FF4FF47B
:105A600080708B49086140004861022087490860C6
:105A70008020874948610861800008614010086102
:105A8000400048614FF403708049086080208049DD
:105A90004861086180000861401008614000486169
:105AA00000207A49086080207949486108618000B7
:105AB0000861401008614000486117207349086080
:105AC00080207349486108618000086140100861C6
:105AD0004000486115206D49086080206C4948618C
